{
	"struct.sol": {
		"EmployeeContract": {
			"abi": [
				{
					"inputs": [
						{
							"internalType": "string",
							"name": "_name",
							"type": "string"
						},
						{
							"internalType": "uint256",
							"name": "_age",
							"type": "uint256"
						},
						{
							"internalType": "string",
							"name": "_position",
							"type": "string"
						},
						{
							"internalType": "uint256",
							"name": "_salary",
							"type": "uint256"
						}
					],
					"name": "addEmployee",
					"outputs": [],
					"stateMutability": "nonpayable",
					"type": "function"
				},
				{
					"inputs": [
						{
							"internalType": "uint256",
							"name": "",
							"type": "uint256"
						}
					],
					"name": "employees",
					"outputs": [
						{
							"internalType": "uint256",
							"name": "id",
							"type": "uint256"
						},
						{
							"internalType": "string",
							"name": "name",
							"type": "string"
						},
						{
							"internalType": "uint256",
							"name": "age",
							"type": "uint256"
						},
						{
							"internalType": "string",
							"name": "position",
							"type": "string"
						},
						{
							"internalType": "uint256",
							"name": "salary",
							"type": "uint256"
						}
					],
					"stateMutability": "view",
					"type": "function"
				},
				{
					"inputs": [
						{
							"internalType": "uint256",
							"name": "_id",
							"type": "uint256"
						}
					],
					"name": "getEmployee",
					"outputs": [
						{
							"internalType": "uint256",
							"name": "",
							"type": "uint256"
						},
						{
							"internalType": "string",
							"name": "",
							"type": "string"
						},
						{
							"internalType": "uint256",
							"name": "",
							"type": "uint256"
						},
						{
							"internalType": "string",
							"name": "",
							"type": "string"
						},
						{
							"internalType": "uint256",
							"name": "",
							"type": "uint256"
						}
					],
					"stateMutability": "view",
					"type": "function"
				},
				{
					"inputs": [],
					"name": "nextId",
					"outputs": [
						{
							"internalType": "uint256",
							"name": "",
							"type": "uint256"
						}
					],
					"stateMutability": "view",
					"type": "function"
				},
				{
					"inputs": [
						{
							"internalType": "uint256",
							"name": "_id",
							"type": "uint256"
						},
						{
							"internalType": "string",
							"name": "_name",
							"type": "string"
						},
						{
							"internalType": "uint256",
							"name": "_age",
							"type": "uint256"
						},
						{
							"internalType": "string",
							"name": "_position",
							"type": "string"
						},
						{
							"internalType": "uint256",
							"name": "_salary",
							"type": "uint256"
						}
					],
					"name": "updateEmployee",
					"outputs": [],
					"stateMutability": "nonpayable",
					"type": "function"
				}
			],
			"devdoc": {
				"kind": "dev",
				"methods": {},
				"version": 1
			},
			"evm": {
				"assembly": "    /* \"struct.sol\":57:1306  contract EmployeeContract {... */\n  mstore(0x40, 0x80)\n    /* \"struct.sol\":446:447  1 */\n  0x01\n    /* \"struct.sol\":425:447  uint public nextId = 1 */\n  dup1\n  sstore\n    /* \"struct.sol\":57:1306  contract EmployeeContract {... */\n  callvalue\n  dup1\n  iszero\n  tag_1\n  jumpi\n  0x00\n  dup1\n  revert\ntag_1:\n  pop\n  dataSize(sub_0)\n  dup1\n  dataOffset(sub_0)\n  0x00\n  codecopy\n  0x00\n  return\nstop\n\nsub_0: assembly {\n        /* \"struct.sol\":57:1306  contract EmployeeContract {... */\n      mstore(0x40, 0x80)\n      callvalue\n      dup1\n      iszero\n      tag_1\n      jumpi\n      0x00\n      dup1\n      revert\n    tag_1:\n      pop\n      jumpi(tag_2, lt(calldatasize, 0x04))\n      shr(0xe0, calldataload(0x00))\n      dup1\n      0x4739326b\n      eq\n      tag_3\n      jumpi\n      dup1\n      0x61b8ce8c\n      eq\n      tag_4\n      jumpi\n      dup1\n      0x7fc6ca2e\n      eq\n      tag_5\n      jumpi\n      dup1\n      0x9cde29fe\n      eq\n      tag_6\n      jumpi\n      dup1\n      0xbca9a5c5\n      eq\n      tag_7\n      jumpi\n    tag_2:\n      0x00\n      dup1\n      revert\n        /* \"struct.sol\":330:372  mapping(uint => Employee) public employees */\n    tag_3:\n      tag_8\n      0x04\n      dup1\n      calldatasize\n      sub\n      dup2\n      add\n      swap1\n      tag_9\n      swap2\n      swap1\n      tag_10\n      jump\t// in\n    tag_9:\n      tag_11\n      jump\t// in\n    tag_8:\n      mload(0x40)\n      tag_12\n      swap6\n      swap5\n      swap4\n      swap3\n      swap2\n      swap1\n      tag_13\n      jump\t// in\n    tag_12:\n      mload(0x40)\n      dup1\n      swap2\n      sub\n      swap1\n      return\n        /* \"struct.sol\":425:447  uint public nextId = 1 */\n    tag_4:\n      tag_14\n      tag_15\n      jump\t// in\n    tag_14:\n      mload(0x40)\n      tag_16\n      swap2\n      swap1\n      tag_17\n      jump\t// in\n    tag_16:\n      mload(0x40)\n      dup1\n      swap2\n      sub\n      swap1\n      return\n        /* \"struct.sol\":1024:1304  function updateEmployee(uint _id, string memory _name, uint _age, string memory _position, uint _salary) public {... */\n    tag_5:\n      tag_18\n      0x04\n      dup1\n      calldatasize\n      sub\n      dup2\n      add\n      swap1\n      tag_19\n      swap2\n      swap1\n      tag_20\n      jump\t// in\n    tag_19:\n      tag_21\n      jump\t// in\n    tag_18:\n      stop\n        /* \"struct.sol\":492:695  function addEmployee(string memory _name, uint _age, string memory _position, uint _salary) public {... */\n    tag_6:\n      tag_22\n      0x04\n      dup1\n      calldatasize\n      sub\n      dup2\n      add\n      swap1\n      tag_23\n      swap2\n      swap1\n      tag_24\n      jump\t// in\n    tag_23:\n      tag_25\n      jump\t// in\n    tag_22:\n      stop\n        /* \"struct.sol\":752:975  function getEmployee(uint _id) public view returns (uint, string memory, uint, string memory, uint) {... */\n    tag_7:\n      tag_26\n      0x04\n      dup1\n      calldatasize\n      sub\n      dup2\n      add\n      swap1\n      tag_27\n      swap2\n      swap1\n      tag_10\n      jump\t// in\n    tag_27:\n      tag_28\n      jump\t// in\n    tag_26:\n      mload(0x40)\n      tag_29\n      swap6\n      swap5\n      swap4\n      swap3\n      swap2\n      swap1\n      tag_13\n      jump\t// in\n    tag_29:\n      mload(0x40)\n      dup1\n      swap2\n      sub\n      swap1\n      return\n        /* \"struct.sol\":330:372  mapping(uint => Employee) public employees */\n    tag_11:\n      mstore(0x20, 0x00)\n      dup1\n      0x00\n      mstore\n      keccak256(0x00, 0x40)\n      0x00\n      swap2\n      pop\n      swap1\n      pop\n      dup1\n      0x00\n      add\n      sload\n      swap1\n      dup1\n      0x01\n      add\n      dup1\n      sload\n      tag_30\n      swap1\n      tag_31\n      jump\t// in\n    tag_30:\n      dup1\n      0x1f\n      add\n      0x20\n      dup1\n      swap2\n      div\n      mul\n      0x20\n      add\n      mload(0x40)\n      swap1\n      dup2\n      add\n      0x40\n      mstore\n      dup1\n      swap3\n      swap2\n      swap1\n      dup2\n      dup2\n      mstore\n      0x20\n      add\n      dup3\n      dup1\n      sload\n      tag_32\n      swap1\n      tag_31\n      jump\t// in\n    tag_32:\n      dup1\n      iszero\n      tag_33\n      jumpi\n      dup1\n      0x1f\n      lt\n      tag_34\n      jumpi\n      0x0100\n      dup1\n      dup4\n      sload\n      div\n      mul\n      dup4\n      mstore\n      swap2\n      0x20\n      add\n      swap2\n      jump(tag_33)\n    tag_34:\n      dup3\n      add\n      swap2\n      swap1\n      0x00\n      mstore\n      keccak256(0x00, 0x20)\n      swap1\n    tag_35:\n      dup2\n      sload\n      dup2\n      mstore\n      swap1\n      0x01\n      add\n      swap1\n      0x20\n      add\n      dup1\n      dup4\n      gt\n      tag_35\n      jumpi\n      dup3\n      swap1\n      sub\n      0x1f\n      and\n      dup3\n      add\n      swap2\n    tag_33:\n      pop\n      pop\n      pop\n      pop\n      pop\n      swap1\n      dup1\n      0x02\n      add\n      sload\n      swap1\n      dup1\n      0x03\n      add\n      dup1\n      sload\n      tag_36\n      swap1\n      tag_31\n      jump\t// in\n    tag_36:\n      dup1\n      0x1f\n      add\n      0x20\n      dup1\n      swap2\n      div\n      mul\n      0x20\n      add\n      mload(0x40)\n      swap1\n      dup2\n      add\n      0x40\n      mstore\n      dup1\n      swap3\n      swap2\n      swap1\n      dup2\n      dup2\n      mstore\n      0x20\n      add\n      dup3\n      dup1\n      sload\n      tag_37\n      swap1\n      tag_31\n      jump\t// in\n    tag_37:\n      dup1\n      iszero\n      tag_38\n      jumpi\n      dup1\n      0x1f\n      lt\n      tag_39\n      jumpi\n      0x0100\n      dup1\n      dup4\n      sload\n      div\n      mul\n      dup4\n      mstore\n      swap2\n      0x20\n      add\n      swap2\n      jump(tag_38)\n    tag_39:\n      dup3\n      add\n      swap2\n      swap1\n      0x00\n      mstore\n      keccak256(0x00, 0x20)\n      swap1\n    tag_40:\n      dup2\n      sload\n      dup2\n      mstore\n      swap1\n      0x01\n      add\n      swap1\n      0x20\n      add\n      dup1\n      dup4\n      gt\n      tag_40\n      jumpi\n      dup3\n      swap1\n      sub\n      0x1f\n      and\n      dup3\n      add\n      swap2\n    tag_38:\n      pop\n      pop\n      pop\n      pop\n      pop\n      swap1\n      dup1\n      0x04\n      add\n      sload\n      swap1\n      pop\n      dup6\n      jump\t// out\n        /* \"struct.sol\":425:447  uint public nextId = 1 */\n    tag_15:\n      sload(0x01)\n      dup2\n      jump\t// out\n        /* \"struct.sol\":1024:1304  function updateEmployee(uint _id, string memory _name, uint _age, string memory _position, uint _salary) public {... */\n    tag_21:\n        /* \"struct.sol\":1146:1166  Employee storage emp */\n      0x00\n        /* \"struct.sol\":1169:1178  employees */\n      dup1\n        /* \"struct.sol\":1169:1183  employees[_id] */\n      0x00\n        /* \"struct.sol\":1179:1182  _id */\n      dup8\n        /* \"struct.sol\":1169:1183  employees[_id] */\n      dup2\n      mstore\n      0x20\n      add\n      swap1\n      dup2\n      mstore\n      0x20\n      add\n      0x00\n      keccak256\n        /* \"struct.sol\":1146:1183  Employee storage emp = employees[_id] */\n      swap1\n      pop\n        /* \"struct.sol\":1204:1209  _name */\n      dup5\n        /* \"struct.sol\":1193:1196  emp */\n      dup2\n        /* \"struct.sol\":1193:1201  emp.name */\n      0x01\n      add\n        /* \"struct.sol\":1193:1209  emp.name = _name */\n      swap1\n      dup2\n      tag_42\n      swap2\n      swap1\n      tag_43\n      jump\t// in\n    tag_42:\n      pop\n        /* \"struct.sol\":1229:1233  _age */\n      dup4\n        /* \"struct.sol\":1219:1222  emp */\n      dup2\n        /* \"struct.sol\":1219:1226  emp.age */\n      0x02\n      add\n        /* \"struct.sol\":1219:1233  emp.age = _age */\n      dup2\n      swap1\n      sstore\n      pop\n        /* \"struct.sol\":1258:1267  _position */\n      dup3\n        /* \"struct.sol\":1243:1246  emp */\n      dup2\n        /* \"struct.sol\":1243:1255  emp.position */\n      0x03\n      add\n        /* \"struct.sol\":1243:1267  emp.position = _position */\n      swap1\n      dup2\n      tag_44\n      swap2\n      swap1\n      tag_43\n      jump\t// in\n    tag_44:\n      pop\n        /* \"struct.sol\":1290:1297  _salary */\n      dup2\n        /* \"struct.sol\":1277:1280  emp */\n      dup2\n        /* \"struct.sol\":1277:1287  emp.salary */\n      0x04\n      add\n        /* \"struct.sol\":1277:1297  emp.salary = _salary */\n      dup2\n      swap1\n      sstore\n      pop\n        /* \"struct.sol\":1136:1304  {... */\n      pop\n        /* \"struct.sol\":1024:1304  function updateEmployee(uint _id, string memory _name, uint _age, string memory _position, uint _salary) public {... */\n      pop\n      pop\n      pop\n      pop\n      pop\n      jump\t// out\n        /* \"struct.sol\":492:695  function addEmployee(string memory _name, uint _age, string memory _position, uint _salary) public {... */\n    tag_25:\n        /* \"struct.sol\":621:670  Employee(nextId, _name, _age, _position, _salary) */\n      mload(0x40)\n      dup1\n      0xa0\n      add\n      0x40\n      mstore\n      dup1\n        /* \"struct.sol\":630:636  nextId */\n      sload(0x01)\n        /* \"struct.sol\":621:670  Employee(nextId, _name, _age, _position, _salary) */\n      dup2\n      mstore\n      0x20\n      add\n        /* \"struct.sol\":638:643  _name */\n      dup6\n        /* \"struct.sol\":621:670  Employee(nextId, _name, _age, _position, _salary) */\n      dup2\n      mstore\n      0x20\n      add\n        /* \"struct.sol\":645:649  _age */\n      dup5\n        /* \"struct.sol\":621:670  Employee(nextId, _name, _age, _position, _salary) */\n      dup2\n      mstore\n      0x20\n      add\n        /* \"struct.sol\":651:660  _position */\n      dup4\n        /* \"struct.sol\":621:670  Employee(nextId, _name, _age, _position, _salary) */\n      dup2\n      mstore\n      0x20\n      add\n        /* \"struct.sol\":662:669  _salary */\n      dup3\n        /* \"struct.sol\":621:670  Employee(nextId, _name, _age, _position, _salary) */\n      dup2\n      mstore\n      pop\n        /* \"struct.sol\":601:610  employees */\n      0x00\n        /* \"struct.sol\":601:618  employees[nextId] */\n      dup1\n        /* \"struct.sol\":611:617  nextId */\n      sload(0x01)\n        /* \"struct.sol\":601:618  employees[nextId] */\n      dup2\n      mstore\n      0x20\n      add\n      swap1\n      dup2\n      mstore\n      0x20\n      add\n      0x00\n      keccak256\n        /* \"struct.sol\":601:670  employees[nextId] = Employee(nextId, _name, _age, _position, _salary) */\n      0x00\n      dup3\n      add\n      mload\n      dup2\n      0x00\n      add\n      sstore\n      0x20\n      dup3\n      add\n      mload\n      dup2\n      0x01\n      add\n      swap1\n      dup2\n      tag_46\n      swap2\n      swap1\n      tag_43\n      jump\t// in\n    tag_46:\n      pop\n      0x40\n      dup3\n      add\n      mload\n      dup2\n      0x02\n      add\n      sstore\n      0x60\n      dup3\n      add\n      mload\n      dup2\n      0x03\n      add\n      swap1\n      dup2\n      tag_47\n      swap2\n      swap1\n      tag_43\n      jump\t// in\n    tag_47:\n      pop\n      0x80\n      dup3\n      add\n      mload\n      dup2\n      0x04\n      add\n      sstore\n      swap1\n      pop\n      pop\n        /* \"struct.sol\":680:686  nextId */\n      0x01\n      0x00\n        /* \"struct.sol\":680:688  nextId++ */\n      dup2\n      sload\n      dup1\n      swap3\n      swap2\n      swap1\n      tag_48\n      swap1\n      tag_49\n      jump\t// in\n    tag_48:\n      swap2\n      swap1\n      pop\n      sstore\n      pop\n        /* \"struct.sol\":492:695  function addEmployee(string memory _name, uint _age, string memory _position, uint _salary) public {... */\n      pop\n      pop\n      pop\n      pop\n      jump\t// out\n        /* \"struct.sol\":752:975  function getEmployee(uint _id) public view returns (uint, string memory, uint, string memory, uint) {... */\n    tag_28:\n        /* \"struct.sol\":804:808  uint */\n      0x00\n        /* \"struct.sol\":810:823  string memory */\n      0x60\n        /* \"struct.sol\":825:829  uint */\n      0x00\n        /* \"struct.sol\":831:844  string memory */\n      0x60\n        /* \"struct.sol\":846:850  uint */\n      0x00\n        /* \"struct.sol\":862:881  Employee memory emp */\n      dup1\n        /* \"struct.sol\":884:893  employees */\n      0x00\n        /* \"struct.sol\":884:898  employees[_id] */\n      dup1\n        /* \"struct.sol\":894:897  _id */\n      dup9\n        /* \"struct.sol\":884:898  employees[_id] */\n      dup2\n      mstore\n      0x20\n      add\n      swap1\n      dup2\n      mstore\n      0x20\n      add\n      0x00\n      keccak256\n        /* \"struct.sol\":862:898  Employee memory emp = employees[_id] */\n      mload(0x40)\n      dup1\n      0xa0\n      add\n      0x40\n      mstore\n      swap1\n      dup2\n      0x00\n      dup3\n      add\n      sload\n      dup2\n      mstore\n      0x20\n      add\n      0x01\n      dup3\n      add\n      dup1\n      sload\n      tag_51\n      swap1\n      tag_31\n      jump\t// in\n    tag_51:\n      dup1\n      0x1f\n      add\n      0x20\n      dup1\n      swap2\n      div\n      mul\n      0x20\n      add\n      mload(0x40)\n      swap1\n      dup2\n      add\n      0x40\n      mstore\n      dup1\n      swap3\n      swap2\n      swap1\n      dup2\n      dup2\n      mstore\n      0x20\n      add\n      dup3\n      dup1\n      sload\n      tag_52\n      swap1\n      tag_31\n      jump\t// in\n    tag_52:\n      dup1\n      iszero\n      tag_53\n      jumpi\n      dup1\n      0x1f\n      lt\n      tag_54\n      jumpi\n      0x0100\n      dup1\n      dup4\n      sload\n      div\n      mul\n      dup4\n      mstore\n      swap2\n      0x20\n      add\n      swap2\n      jump(tag_53)\n    tag_54:\n      dup3\n      add\n      swap2\n      swap1\n      0x00\n      mstore\n      keccak256(0x00, 0x20)\n      swap1\n    tag_55:\n      dup2\n      sload\n      dup2\n      mstore\n      swap1\n      0x01\n      add\n      swap1\n      0x20\n      add\n      dup1\n      dup4\n      gt\n      tag_55\n      jumpi\n      dup3\n      swap1\n      sub\n      0x1f\n      and\n      dup3\n      add\n      swap2\n    tag_53:\n      pop\n      pop\n      pop\n      pop\n      pop\n      dup2\n      mstore\n      0x20\n      add\n      0x02\n      dup3\n      add\n      sload\n      dup2\n      mstore\n      0x20\n      add\n      0x03\n      dup3\n      add\n      dup1\n      sload\n      tag_56\n      swap1\n      tag_31\n      jump\t// in\n    tag_56:\n      dup1\n      0x1f\n      add\n      0x20\n      dup1\n      swap2\n      div\n      mul\n      0x20\n      add\n      mload(0x40)\n      swap1\n      dup2\n      add\n      0x40\n      mstore\n      dup1\n      swap3\n      swap2\n      swap1\n      dup2\n      dup2\n      mstore\n      0x20\n      add\n      dup3\n      dup1\n      sload\n      tag_57\n      swap1\n      tag_31\n      jump\t// in\n    tag_57:\n      dup1\n      iszero\n      tag_58\n      jumpi\n      dup1\n      0x1f\n      lt\n      tag_59\n      jumpi\n      0x0100\n      dup1\n      dup4\n      sload\n      div\n      mul\n      dup4\n      mstore\n      swap2\n      0x20\n      add\n      swap2\n      jump(tag_58)\n    tag_59:\n      dup3\n      add\n      swap2\n      swap1\n      0x00\n      mstore\n      keccak256(0x00, 0x20)\n      swap1\n    tag_60:\n      dup2\n      sload\n      dup2\n      mstore\n      swap1\n      0x01\n      add\n      swap1\n      0x20\n      add\n      dup1\n      dup4\n      gt\n      tag_60\n      jumpi\n      dup3\n      swap1\n      sub\n      0x1f\n      and\n      dup3\n      add\n      swap2\n    tag_58:\n      pop\n      pop\n      pop\n      pop\n      pop\n      dup2\n      mstore\n      0x20\n      add\n      0x04\n      dup3\n      add\n      sload\n      dup2\n      mstore\n      pop\n      pop\n      swap1\n      pop\n        /* \"struct.sol\":916:919  emp */\n      dup1\n        /* \"struct.sol\":916:922  emp.id */\n      0x00\n      add\n      mload\n        /* \"struct.sol\":924:927  emp */\n      dup2\n        /* \"struct.sol\":924:932  emp.name */\n      0x20\n      add\n      mload\n        /* \"struct.sol\":934:937  emp */\n      dup3\n        /* \"struct.sol\":934:941  emp.age */\n      0x40\n      add\n      mload\n        /* \"struct.sol\":943:946  emp */\n      dup4\n        /* \"struct.sol\":943:955  emp.position */\n      0x60\n      add\n      mload\n        /* \"struct.sol\":957:960  emp */\n      dup5\n        /* \"struct.sol\":957:967  emp.salary */\n      0x80\n      add\n      mload\n        /* \"struct.sol\":908:968  return (emp.id, emp.name, emp.age, emp.position, emp.salary) */\n      swap6\n      pop\n      swap6\n      pop\n      swap6\n      pop\n      swap6\n      pop\n      swap6\n      pop\n      pop\n        /* \"struct.sol\":752:975  function getEmployee(uint _id) public view returns (uint, string memory, uint, string memory, uint) {... */\n      swap2\n      swap4\n      swap6\n      swap1\n      swap3\n      swap5\n      pop\n      jump\t// out\n        /* \"#utility.yul\":7:82   */\n    tag_61:\n        /* \"#utility.yul\":40:46   */\n      0x00\n        /* \"#utility.yul\":73:75   */\n      0x40\n        /* \"#utility.yul\":67:76   */\n      mload\n        /* \"#utility.yul\":57:76   */\n      swap1\n      pop\n        /* \"#utility.yul\":7:82   */\n      swap1\n      jump\t// out\n        /* \"#utility.yul\":88:205   */\n    tag_62:\n        /* \"#utility.yul\":197:198   */\n      0x00\n        /* \"#utility.yul\":194:195   */\n      dup1\n        /* \"#utility.yul\":187:199   */\n      revert\n        /* \"#utility.yul\":211:328   */\n    tag_63:\n        /* \"#utility.yul\":320:321   */\n      0x00\n        /* \"#utility.yul\":317:318   */\n      dup1\n        /* \"#utility.yul\":310:322   */\n      revert\n        /* \"#utility.yul\":334:411   */\n    tag_64:\n        /* \"#utility.yul\":371:378   */\n      0x00\n        /* \"#utility.yul\":400:405   */\n      dup2\n        /* \"#utility.yul\":389:405   */\n      swap1\n      pop\n        /* \"#utility.yul\":334:411   */\n      swap2\n      swap1\n      pop\n      jump\t// out\n        /* \"#utility.yul\":417:539   */\n    tag_65:\n        /* \"#utility.yul\":490:514   */\n      tag_105\n        /* \"#utility.yul\":508:513   */\n      dup2\n        /* \"#utility.yul\":490:514   */\n      tag_64\n      jump\t// in\n    tag_105:\n        /* \"#utility.yul\":483:488   */\n      dup2\n        /* \"#utility.yul\":480:515   */\n      eq\n        /* \"#utility.yul\":470:533   */\n      tag_106\n      jumpi\n        /* \"#utility.yul\":529:530   */\n      0x00\n        /* \"#utility.yul\":526:527   */\n      dup1\n        /* \"#utility.yul\":519:531   */\n      revert\n        /* \"#utility.yul\":470:533   */\n    tag_106:\n        /* \"#utility.yul\":417:539   */\n      pop\n      jump\t// out\n        /* \"#utility.yul\":545:684   */\n    tag_66:\n        /* \"#utility.yul\":591:596   */\n      0x00\n        /* \"#utility.yul\":629:635   */\n      dup2\n        /* \"#utility.yul\":616:636   */\n      calldataload\n        /* \"#utility.yul\":607:636   */\n      swap1\n      pop\n        /* \"#utility.yul\":645:678   */\n      tag_108\n        /* \"#utility.yul\":672:677   */\n      dup2\n        /* \"#utility.yul\":645:678   */\n      tag_65\n      jump\t// in\n    tag_108:\n        /* \"#utility.yul\":545:684   */\n      swap3\n      swap2\n      pop\n      pop\n      jump\t// out\n        /* \"#utility.yul\":690:1019   */\n    tag_10:\n        /* \"#utility.yul\":749:755   */\n      0x00\n        /* \"#utility.yul\":798:800   */\n      0x20\n        /* \"#utility.yul\":786:795   */\n      dup3\n        /* \"#utility.yul\":777:784   */\n      dup5\n        /* \"#utility.yul\":773:796   */\n      sub\n        /* \"#utility.yul\":769:801   */\n      slt\n        /* \"#utility.yul\":766:885   */\n      iszero\n      tag_110\n      jumpi\n        /* \"#utility.yul\":804:883   */\n      tag_111\n      tag_62\n      jump\t// in\n    tag_111:\n        /* \"#utility.yul\":766:885   */\n    tag_110:\n        /* \"#utility.yul\":924:925   */\n      0x00\n        /* \"#utility.yul\":949:1002   */\n      tag_112\n        /* \"#utility.yul\":994:1001   */\n      dup5\n        /* \"#utility.yul\":985:991   */\n      dup3\n        /* \"#utility.yul\":974:983   */\n      dup6\n        /* \"#utility.yul\":970:992   */\n      add\n        /* \"#utility.yul\":949:1002   */\n      tag_66\n      jump\t// in\n    tag_112:\n        /* \"#utility.yul\":939:1002   */\n      swap2\n      pop\n        /* \"#utility.yul\":895:1012   */\n      pop\n        /* \"#utility.yul\":690:1019   */\n      swap3\n      swap2\n      pop\n      pop\n      jump\t// out\n        /* \"#utility.yul\":1025:1143   */\n    tag_67:\n        /* \"#utility.yul\":1112:1136   */\n      tag_114\n        /* \"#utility.yul\":1130:1135   */\n      dup2\n        /* \"#utility.yul\":1112:1136   */\n      tag_64\n      jump\t// in\n    tag_114:\n        /* \"#utility.yul\":1107:1110   */\n      dup3\n        /* \"#utility.yul\":1100:1137   */\n      mstore\n        /* \"#utility.yul\":1025:1143   */\n      pop\n      pop\n      jump\t// out\n        /* \"#utility.yul\":1149:1248   */\n    tag_68:\n        /* \"#utility.yul\":1201:1207   */\n      0x00\n        /* \"#utility.yul\":1235:1240   */\n      dup2\n        /* \"#utility.yul\":1229:1241   */\n      mload\n        /* \"#utility.yul\":1219:1241   */\n      swap1\n      pop\n        /* \"#utility.yul\":1149:1248   */\n      swap2\n      swap1\n      pop\n      jump\t// out\n        /* \"#utility.yul\":1254:1423   */\n    tag_69:\n        /* \"#utility.yul\":1338:1349   */\n      0x00\n        /* \"#utility.yul\":1372:1378   */\n      dup3\n        /* \"#utility.yul\":1367:1370   */\n      dup3\n        /* \"#utility.yul\":1360:1379   */\n      mstore\n        /* \"#utility.yul\":1412:1416   */\n      0x20\n        /* \"#utility.yul\":1407:1410   */\n      dup3\n        /* \"#utility.yul\":1403:1417   */\n      add\n        /* \"#utility.yul\":1388:1417   */\n      swap1\n      pop\n        /* \"#utility.yul\":1254:1423   */\n      swap3\n      swap2\n      pop\n      pop\n      jump\t// out\n        /* \"#utility.yul\":1429:1568   */\n    tag_70:\n        /* \"#utility.yul\":1518:1524   */\n      dup3\n        /* \"#utility.yul\":1513:1516   */\n      dup2\n        /* \"#utility.yul\":1508:1511   */\n      dup4\n        /* \"#utility.yul\":1502:1525   */\n      mcopy\n        /* \"#utility.yul\":1559:1560   */\n      0x00\n        /* \"#utility.yul\":1550:1556   */\n      dup4\n        /* \"#utility.yul\":1545:1548   */\n      dup4\n        /* \"#utility.yul\":1541:1557   */\n      add\n        /* \"#utility.yul\":1534:1561   */\n      mstore\n        /* \"#utility.yul\":1429:1568   */\n      pop\n      pop\n      pop\n      jump\t// out\n        /* \"#utility.yul\":1574:1676   */\n    tag_71:\n        /* \"#utility.yul\":1615:1621   */\n      0x00\n        /* \"#utility.yul\":1666:1668   */\n      0x1f\n        /* \"#utility.yul\":1662:1669   */\n      not\n        /* \"#utility.yul\":1657:1659   */\n      0x1f\n        /* \"#utility.yul\":1650:1655   */\n      dup4\n        /* \"#utility.yul\":1646:1660   */\n      add\n        /* \"#utility.yul\":1642:1670   */\n      and\n        /* \"#utility.yul\":1632:1670   */\n      swap1\n      pop\n        /* \"#utility.yul\":1574:1676   */\n      swap2\n      swap1\n      pop\n      jump\t// out\n        /* \"#utility.yul\":1682:2059   */\n    tag_72:\n        /* \"#utility.yul\":1770:1773   */\n      0x00\n        /* \"#utility.yul\":1798:1837   */\n      tag_120\n        /* \"#utility.yul\":1831:1836   */\n      dup3\n        /* \"#utility.yul\":1798:1837   */\n      tag_68\n      jump\t// in\n    tag_120:\n        /* \"#utility.yul\":1853:1924   */\n      tag_121\n        /* \"#utility.yul\":1917:1923   */\n      dup2\n        /* \"#utility.yul\":1912:1915   */\n      dup6\n        /* \"#utility.yul\":1853:1924   */\n      tag_69\n      jump\t// in\n    tag_121:\n        /* \"#utility.yul\":1846:1924   */\n      swap4\n      pop\n        /* \"#utility.yul\":1933:1998   */\n      tag_122\n        /* \"#utility.yul\":1991:1997   */\n      dup2\n        /* \"#utility.yul\":1986:1989   */\n      dup6\n        /* \"#utility.yul\":1979:1983   */\n      0x20\n        /* \"#utility.yul\":1972:1977   */\n      dup7\n        /* \"#utility.yul\":1968:1984   */\n      add\n        /* \"#utility.yul\":1933:1998   */\n      tag_70\n      jump\t// in\n    tag_122:\n        /* \"#utility.yul\":2023:2052   */\n      tag_123\n        /* \"#utility.yul\":2045:2051   */\n      dup2\n        /* \"#utility.yul\":2023:2052   */\n      tag_71\n      jump\t// in\n    tag_123:\n        /* \"#utility.yul\":2018:2021   */\n      dup5\n        /* \"#utility.yul\":2014:2053   */\n      add\n        /* \"#utility.yul\":2007:2053   */\n      swap2\n      pop\n        /* \"#utility.yul\":1774:2059   */\n      pop\n        /* \"#utility.yul\":1682:2059   */\n      swap3\n      swap2\n      pop\n      pop\n      jump\t// out\n        /* \"#utility.yul\":2065:2911   */\n    tag_13:\n        /* \"#utility.yul\":2310:2314   */\n      0x00\n        /* \"#utility.yul\":2348:2351   */\n      0xa0\n        /* \"#utility.yul\":2337:2346   */\n      dup3\n        /* \"#utility.yul\":2333:2352   */\n      add\n        /* \"#utility.yul\":2325:2352   */\n      swap1\n      pop\n        /* \"#utility.yul\":2362:2433   */\n      tag_125\n        /* \"#utility.yul\":2430:2431   */\n      0x00\n        /* \"#utility.yul\":2419:2428   */\n      dup4\n        /* \"#utility.yul\":2415:2432   */\n      add\n        /* \"#utility.yul\":2406:2412   */\n      dup9\n        /* \"#utility.yul\":2362:2433   */\n      tag_67\n      jump\t// in\n    tag_125:\n        /* \"#utility.yul\":2480:2489   */\n      dup2\n        /* \"#utility.yul\":2474:2478   */\n      dup2\n        /* \"#utility.yul\":2470:2490   */\n      sub\n        /* \"#utility.yul\":2465:2467   */\n      0x20\n        /* \"#utility.yul\":2454:2463   */\n      dup4\n        /* \"#utility.yul\":2450:2468   */\n      add\n        /* \"#utility.yul\":2443:2491   */\n      mstore\n        /* \"#utility.yul\":2508:2586   */\n      tag_126\n        /* \"#utility.yul\":2581:2585   */\n      dup2\n        /* \"#utility.yul\":2572:2578   */\n      dup8\n        /* \"#utility.yul\":2508:2586   */\n      tag_72\n      jump\t// in\n    tag_126:\n        /* \"#utility.yul\":2500:2586   */\n      swap1\n      pop\n        /* \"#utility.yul\":2596:2668   */\n      tag_127\n        /* \"#utility.yul\":2664:2666   */\n      0x40\n        /* \"#utility.yul\":2653:2662   */\n      dup4\n        /* \"#utility.yul\":2649:2667   */\n      add\n        /* \"#utility.yul\":2640:2646   */\n      dup7\n        /* \"#utility.yul\":2596:2668   */\n      tag_67\n      jump\t// in\n    tag_127:\n        /* \"#utility.yul\":2715:2724   */\n      dup2\n        /* \"#utility.yul\":2709:2713   */\n      dup2\n        /* \"#utility.yul\":2705:2725   */\n      sub\n        /* \"#utility.yul\":2700:2702   */\n      0x60\n        /* \"#utility.yul\":2689:2698   */\n      dup4\n        /* \"#utility.yul\":2685:2703   */\n      add\n        /* \"#utility.yul\":2678:2726   */\n      mstore\n        /* \"#utility.yul\":2743:2821   */\n      tag_128\n        /* \"#utility.yul\":2816:2820   */\n      dup2\n        /* \"#utility.yul\":2807:2813   */\n      dup6\n        /* \"#utility.yul\":2743:2821   */\n      tag_72\n      jump\t// in\n    tag_128:\n        /* \"#utility.yul\":2735:2821   */\n      swap1\n      pop\n        /* \"#utility.yul\":2831:2904   */\n      tag_129\n        /* \"#utility.yul\":2899:2902   */\n      0x80\n        /* \"#utility.yul\":2888:2897   */\n      dup4\n        /* \"#utility.yul\":2884:2903   */\n      add\n        /* \"#utility.yul\":2875:2881   */\n      dup5\n        /* \"#utility.yul\":2831:2904   */\n      tag_67\n      jump\t// in\n    tag_129:\n        /* \"#utility.yul\":2065:2911   */\n      swap7\n      swap6\n      pop\n      pop\n      pop\n      pop\n      pop\n      pop\n      jump\t// out\n        /* \"#utility.yul\":2917:3139   */\n    tag_17:\n        /* \"#utility.yul\":3010:3014   */\n      0x00\n        /* \"#utility.yul\":3048:3050   */\n      0x20\n        /* \"#utility.yul\":3037:3046   */\n      dup3\n        /* \"#utility.yul\":3033:3051   */\n      add\n        /* \"#utility.yul\":3025:3051   */\n      swap1\n      pop\n        /* \"#utility.yul\":3061:3132   */\n      tag_131\n        /* \"#utility.yul\":3129:3130   */\n      0x00\n        /* \"#utility.yul\":3118:3127   */\n      dup4\n        /* \"#utility.yul\":3114:3131   */\n      add\n        /* \"#utility.yul\":3105:3111   */\n      dup5\n        /* \"#utility.yul\":3061:3132   */\n      tag_67\n      jump\t// in\n    tag_131:\n        /* \"#utility.yul\":2917:3139   */\n      swap3\n      swap2\n      pop\n      pop\n      jump\t// out\n        /* \"#utility.yul\":3145:3262   */\n    tag_73:\n        /* \"#utility.yul\":3254:3255   */\n      0x00\n        /* \"#utility.yul\":3251:3252   */\n      dup1\n        /* \"#utility.yul\":3244:3256   */\n      revert\n        /* \"#utility.yul\":3268:3385   */\n    tag_74:\n        /* \"#utility.yul\":3377:3378   */\n      0x00\n        /* \"#utility.yul\":3374:3375   */\n      dup1\n        /* \"#utility.yul\":3367:3379   */\n      revert\n        /* \"#utility.yul\":3391:3571   */\n    tag_75:\n        /* \"#utility.yul\":3439:3516   */\n      0x4e487b7100000000000000000000000000000000000000000000000000000000\n        /* \"#utility.yul\":3436:3437   */\n      0x00\n        /* \"#utility.yul\":3429:3517   */\n      mstore\n        /* \"#utility.yul\":3536:3540   */\n      0x41\n        /* \"#utility.yul\":3533:3534   */\n      0x04\n        /* \"#utility.yul\":3526:3541   */\n      mstore\n        /* \"#utility.yul\":3560:3564   */\n      0x24\n        /* \"#utility.yul\":3557:3558   */\n      0x00\n        /* \"#utility.yul\":3550:3565   */\n      revert\n        /* \"#utility.yul\":3577:3858   */\n    tag_76:\n        /* \"#utility.yul\":3660:3687   */\n      tag_136\n        /* \"#utility.yul\":3682:3686   */\n      dup3\n        /* \"#utility.yul\":3660:3687   */\n      tag_71\n      jump\t// in\n    tag_136:\n        /* \"#utility.yul\":3652:3658   */\n      dup2\n        /* \"#utility.yul\":3648:3688   */\n      add\n        /* \"#utility.yul\":3790:3796   */\n      dup2\n        /* \"#utility.yul\":3778:3788   */\n      dup2\n        /* \"#utility.yul\":3775:3797   */\n      lt\n        /* \"#utility.yul\":3754:3772   */\n      0xffffffffffffffff\n        /* \"#utility.yul\":3742:3752   */\n      dup3\n        /* \"#utility.yul\":3739:3773   */\n      gt\n        /* \"#utility.yul\":3736:3798   */\n      or\n        /* \"#utility.yul\":3733:3821   */\n      iszero\n      tag_137\n      jumpi\n        /* \"#utility.yul\":3801:3819   */\n      tag_138\n      tag_75\n      jump\t// in\n    tag_138:\n        /* \"#utility.yul\":3733:3821   */\n    tag_137:\n        /* \"#utility.yul\":3841:3851   */\n      dup1\n        /* \"#utility.yul\":3837:3839   */\n      0x40\n        /* \"#utility.yul\":3830:3852   */\n      mstore\n        /* \"#utility.yul\":3620:3858   */\n      pop\n        /* \"#utility.yul\":3577:3858   */\n      pop\n      pop\n      jump\t// out\n        /* \"#utility.yul\":3864:3993   */\n    tag_77:\n        /* \"#utility.yul\":3898:3904   */\n      0x00\n        /* \"#utility.yul\":3925:3945   */\n      tag_140\n      tag_61\n      jump\t// in\n    tag_140:\n        /* \"#utility.yul\":3915:3945   */\n      swap1\n      pop\n        /* \"#utility.yul\":3954:3987   */\n      tag_141\n        /* \"#utility.yul\":3982:3986   */\n      dup3\n        /* \"#utility.yul\":3974:3980   */\n      dup3\n        /* \"#utility.yul\":3954:3987   */\n      tag_76\n      jump\t// in\n    tag_141:\n        /* \"#utility.yul\":3864:3993   */\n      swap2\n      swap1\n      pop\n      jump\t// out\n        /* \"#utility.yul\":3999:4307   */\n    tag_78:\n        /* \"#utility.yul\":4061:4065   */\n      0x00\n        /* \"#utility.yul\":4151:4169   */\n      0xffffffffffffffff\n        /* \"#utility.yul\":4143:4149   */\n      dup3\n        /* \"#utility.yul\":4140:4170   */\n      gt\n        /* \"#utility.yul\":4137:4193   */\n      iszero\n      tag_143\n      jumpi\n        /* \"#utility.yul\":4173:4191   */\n      tag_144\n      tag_75\n      jump\t// in\n    tag_144:\n        /* \"#utility.yul\":4137:4193   */\n    tag_143:\n        /* \"#utility.yul\":4211:4240   */\n      tag_145\n        /* \"#utility.yul\":4233:4239   */\n      dup3\n        /* \"#utility.yul\":4211:4240   */\n      tag_71\n      jump\t// in\n    tag_145:\n        /* \"#utility.yul\":4203:4240   */\n      swap1\n      pop\n        /* \"#utility.yul\":4295:4299   */\n      0x20\n        /* \"#utility.yul\":4289:4293   */\n      dup2\n        /* \"#utility.yul\":4285:4300   */\n      add\n        /* \"#utility.yul\":4277:4300   */\n      swap1\n      pop\n        /* \"#utility.yul\":3999:4307   */\n      swap2\n      swap1\n      pop\n      jump\t// out\n        /* \"#utility.yul\":4313:4461   */\n    tag_79:\n        /* \"#utility.yul\":4411:4417   */\n      dup3\n        /* \"#utility.yul\":4406:4409   */\n      dup2\n        /* \"#utility.yul\":4401:4404   */\n      dup4\n        /* \"#utility.yul\":4388:4418   */\n      calldatacopy\n        /* \"#utility.yul\":4452:4453   */\n      0x00\n        /* \"#utility.yul\":4443:4449   */\n      dup4\n        /* \"#utility.yul\":4438:4441   */\n      dup4\n        /* \"#utility.yul\":4434:4450   */\n      add\n        /* \"#utility.yul\":4427:4454   */\n      mstore\n        /* \"#utility.yul\":4313:4461   */\n      pop\n      pop\n      pop\n      jump\t// out\n        /* \"#utility.yul\":4467:4892   */\n    tag_80:\n        /* \"#utility.yul\":4545:4550   */\n      0x00\n        /* \"#utility.yul\":4570:4636   */\n      tag_148\n        /* \"#utility.yul\":4586:4635   */\n      tag_149\n        /* \"#utility.yul\":4628:4634   */\n      dup5\n        /* \"#utility.yul\":4586:4635   */\n      tag_78\n      jump\t// in\n    tag_149:\n        /* \"#utility.yul\":4570:4636   */\n      tag_77\n      jump\t// in\n    tag_148:\n        /* \"#utility.yul\":4561:4636   */\n      swap1\n      pop\n        /* \"#utility.yul\":4659:4665   */\n      dup3\n        /* \"#utility.yul\":4652:4657   */\n      dup2\n        /* \"#utility.yul\":4645:4666   */\n      mstore\n        /* \"#utility.yul\":4697:4701   */\n      0x20\n        /* \"#utility.yul\":4690:4695   */\n      dup2\n        /* \"#utility.yul\":4686:4702   */\n      add\n        /* \"#utility.yul\":4735:4738   */\n      dup5\n        /* \"#utility.yul\":4726:4732   */\n      dup5\n        /* \"#utility.yul\":4721:4724   */\n      dup5\n        /* \"#utility.yul\":4717:4733   */\n      add\n        /* \"#utility.yul\":4714:4739   */\n      gt\n        /* \"#utility.yul\":4711:4823   */\n      iszero\n      tag_150\n      jumpi\n        /* \"#utility.yul\":4742:4821   */\n      tag_151\n      tag_74\n      jump\t// in\n    tag_151:\n        /* \"#utility.yul\":4711:4823   */\n    tag_150:\n        /* \"#utility.yul\":4832:4886   */\n      tag_152\n        /* \"#utility.yul\":4879:4885   */\n      dup5\n        /* \"#utility.yul\":4874:4877   */\n      dup3\n        /* \"#utility.yul\":4869:4872   */\n      dup6\n        /* \"#utility.yul\":4832:4886   */\n      tag_79\n      jump\t// in\n    tag_152:\n        /* \"#utility.yul\":4551:4892   */\n      pop\n        /* \"#utility.yul\":4467:4892   */\n      swap4\n      swap3\n      pop\n      pop\n      pop\n      jump\t// out\n        /* \"#utility.yul\":4912:5252   */\n    tag_81:\n        /* \"#utility.yul\":4968:4973   */\n      0x00\n        /* \"#utility.yul\":5017:5020   */\n      dup3\n        /* \"#utility.yul\":5010:5014   */\n      0x1f\n        /* \"#utility.yul\":5002:5008   */\n      dup4\n        /* \"#utility.yul\":4998:5015   */\n      add\n        /* \"#utility.yul\":4994:5021   */\n      slt\n        /* \"#utility.yul\":4984:5106   */\n      tag_154\n      jumpi\n        /* \"#utility.yul\":5025:5104   */\n      tag_155\n      tag_73\n      jump\t// in\n    tag_155:\n        /* \"#utility.yul\":4984:5106   */\n    tag_154:\n        /* \"#utility.yul\":5142:5148   */\n      dup2\n        /* \"#utility.yul\":5129:5149   */\n      calldataload\n        /* \"#utility.yul\":5167:5246   */\n      tag_156\n        /* \"#utility.yul\":5242:5245   */\n      dup5\n        /* \"#utility.yul\":5234:5240   */\n      dup3\n        /* \"#utility.yul\":5227:5231   */\n      0x20\n        /* \"#utility.yul\":5219:5225   */\n      dup7\n        /* \"#utility.yul\":5215:5232   */\n      add\n        /* \"#utility.yul\":5167:5246   */\n      tag_80\n      jump\t// in\n    tag_156:\n        /* \"#utility.yul\":5158:5246   */\n      swap2\n      pop\n        /* \"#utility.yul\":4974:5252   */\n      pop\n        /* \"#utility.yul\":4912:5252   */\n      swap3\n      swap2\n      pop\n      pop\n      jump\t// out\n        /* \"#utility.yul\":5258:6529   */\n    tag_20:\n        /* \"#utility.yul\":5373:5379   */\n      0x00\n        /* \"#utility.yul\":5381:5387   */\n      dup1\n        /* \"#utility.yul\":5389:5395   */\n      0x00\n        /* \"#utility.yul\":5397:5403   */\n      dup1\n        /* \"#utility.yul\":5405:5411   */\n      0x00\n        /* \"#utility.yul\":5454:5457   */\n      0xa0\n        /* \"#utility.yul\":5442:5451   */\n      dup7\n        /* \"#utility.yul\":5433:5440   */\n      dup9\n        /* \"#utility.yul\":5429:5452   */\n      sub\n        /* \"#utility.yul\":5425:5458   */\n      slt\n        /* \"#utility.yul\":5422:5542   */\n      iszero\n      tag_158\n      jumpi\n        /* \"#utility.yul\":5461:5540   */\n      tag_159\n      tag_62\n      jump\t// in\n    tag_159:\n        /* \"#utility.yul\":5422:5542   */\n    tag_158:\n        /* \"#utility.yul\":5581:5582   */\n      0x00\n        /* \"#utility.yul\":5606:5659   */\n      tag_160\n        /* \"#utility.yul\":5651:5658   */\n      dup9\n        /* \"#utility.yul\":5642:5648   */\n      dup3\n        /* \"#utility.yul\":5631:5640   */\n      dup10\n        /* \"#utility.yul\":5627:5649   */\n      add\n        /* \"#utility.yul\":5606:5659   */\n      tag_66\n      jump\t// in\n    tag_160:\n        /* \"#utility.yul\":5596:5659   */\n      swap6\n      pop\n        /* \"#utility.yul\":5552:5669   */\n      pop\n        /* \"#utility.yul\":5736:5738   */\n      0x20\n        /* \"#utility.yul\":5725:5734   */\n      dup7\n        /* \"#utility.yul\":5721:5739   */\n      add\n        /* \"#utility.yul\":5708:5740   */\n      calldataload\n        /* \"#utility.yul\":5767:5785   */\n      0xffffffffffffffff\n        /* \"#utility.yul\":5759:5765   */\n      dup2\n        /* \"#utility.yul\":5756:5786   */\n      gt\n        /* \"#utility.yul\":5753:5870   */\n      iszero\n      tag_161\n      jumpi\n        /* \"#utility.yul\":5789:5868   */\n      tag_162\n      tag_63\n      jump\t// in\n    tag_162:\n        /* \"#utility.yul\":5753:5870   */\n    tag_161:\n        /* \"#utility.yul\":5894:5957   */\n      tag_163\n        /* \"#utility.yul\":5949:5956   */\n      dup9\n        /* \"#utility.yul\":5940:5946   */\n      dup3\n        /* \"#utility.yul\":5929:5938   */\n      dup10\n        /* \"#utility.yul\":5925:5947   */\n      add\n        /* \"#utility.yul\":5894:5957   */\n      tag_81\n      jump\t// in\n    tag_163:\n        /* \"#utility.yul\":5884:5957   */\n      swap5\n      pop\n        /* \"#utility.yul\":5679:5967   */\n      pop\n        /* \"#utility.yul\":6006:6008   */\n      0x40\n        /* \"#utility.yul\":6032:6085   */\n      tag_164\n        /* \"#utility.yul\":6077:6084   */\n      dup9\n        /* \"#utility.yul\":6068:6074   */\n      dup3\n        /* \"#utility.yul\":6057:6066   */\n      dup10\n        /* \"#utility.yul\":6053:6075   */\n      add\n        /* \"#utility.yul\":6032:6085   */\n      tag_66\n      jump\t// in\n    tag_164:\n        /* \"#utility.yul\":6022:6085   */\n      swap4\n      pop\n        /* \"#utility.yul\":5977:6095   */\n      pop\n        /* \"#utility.yul\":6162:6164   */\n      0x60\n        /* \"#utility.yul\":6151:6160   */\n      dup7\n        /* \"#utility.yul\":6147:6165   */\n      add\n        /* \"#utility.yul\":6134:6166   */\n      calldataload\n        /* \"#utility.yul\":6193:6211   */\n      0xffffffffffffffff\n        /* \"#utility.yul\":6185:6191   */\n      dup2\n        /* \"#utility.yul\":6182:6212   */\n      gt\n        /* \"#utility.yul\":6179:6296   */\n      iszero\n      tag_165\n      jumpi\n        /* \"#utility.yul\":6215:6294   */\n      tag_166\n      tag_63\n      jump\t// in\n    tag_166:\n        /* \"#utility.yul\":6179:6296   */\n    tag_165:\n        /* \"#utility.yul\":6320:6383   */\n      tag_167\n        /* \"#utility.yul\":6375:6382   */\n      dup9\n        /* \"#utility.yul\":6366:6372   */\n      dup3\n        /* \"#utility.yul\":6355:6364   */\n      dup10\n        /* \"#utility.yul\":6351:6373   */\n      add\n        /* \"#utility.yul\":6320:6383   */\n      tag_81\n      jump\t// in\n    tag_167:\n        /* \"#utility.yul\":6310:6383   */\n      swap3\n      pop\n        /* \"#utility.yul\":6105:6393   */\n      pop\n        /* \"#utility.yul\":6432:6435   */\n      0x80\n        /* \"#utility.yul\":6459:6512   */\n      tag_168\n        /* \"#utility.yul\":6504:6511   */\n      dup9\n        /* \"#utility.yul\":6495:6501   */\n      dup3\n        /* \"#utility.yul\":6484:6493   */\n      dup10\n        /* \"#utility.yul\":6480:6502   */\n      add\n        /* \"#utility.yul\":6459:6512   */\n      tag_66\n      jump\t// in\n    tag_168:\n        /* \"#utility.yul\":6449:6512   */\n      swap2\n      pop\n        /* \"#utility.yul\":6403:6522   */\n      pop\n        /* \"#utility.yul\":5258:6529   */\n      swap3\n      swap6\n      pop\n      swap3\n      swap6\n      swap1\n      swap4\n      pop\n      jump\t// out\n        /* \"#utility.yul\":6535:7660   */\n    tag_24:\n        /* \"#utility.yul\":6641:6647   */\n      0x00\n        /* \"#utility.yul\":6649:6655   */\n      dup1\n        /* \"#utility.yul\":6657:6663   */\n      0x00\n        /* \"#utility.yul\":6665:6671   */\n      dup1\n        /* \"#utility.yul\":6714:6717   */\n      0x80\n        /* \"#utility.yul\":6702:6711   */\n      dup6\n        /* \"#utility.yul\":6693:6700   */\n      dup8\n        /* \"#utility.yul\":6689:6712   */\n      sub\n        /* \"#utility.yul\":6685:6718   */\n      slt\n        /* \"#utility.yul\":6682:6802   */\n      iszero\n      tag_170\n      jumpi\n        /* \"#utility.yul\":6721:6800   */\n      tag_171\n      tag_62\n      jump\t// in\n    tag_171:\n        /* \"#utility.yul\":6682:6802   */\n    tag_170:\n        /* \"#utility.yul\":6869:6870   */\n      0x00\n        /* \"#utility.yul\":6858:6867   */\n      dup6\n        /* \"#utility.yul\":6854:6871   */\n      add\n        /* \"#utility.yul\":6841:6872   */\n      calldataload\n        /* \"#utility.yul\":6899:6917   */\n      0xffffffffffffffff\n        /* \"#utility.yul\":6891:6897   */\n      dup2\n        /* \"#utility.yul\":6888:6918   */\n      gt\n        /* \"#utility.yul\":6885:7002   */\n      iszero\n      tag_172\n      jumpi\n        /* \"#utility.yul\":6921:7000   */\n      tag_173\n      tag_63\n      jump\t// in\n    tag_173:\n        /* \"#utility.yul\":6885:7002   */\n    tag_172:\n        /* \"#utility.yul\":7026:7089   */\n      tag_174\n        /* \"#utility.yul\":7081:7088   */\n      dup8\n        /* \"#utility.yul\":7072:7078   */\n      dup3\n        /* \"#utility.yul\":7061:7070   */\n      dup9\n        /* \"#utility.yul\":7057:7079   */\n      add\n        /* \"#utility.yul\":7026:7089   */\n      tag_81\n      jump\t// in\n    tag_174:\n        /* \"#utility.yul\":7016:7089   */\n      swap5\n      pop\n        /* \"#utility.yul\":6812:7099   */\n      pop\n        /* \"#utility.yul\":7138:7140   */\n      0x20\n        /* \"#utility.yul\":7164:7217   */\n      tag_175\n        /* \"#utility.yul\":7209:7216   */\n      dup8\n        /* \"#utility.yul\":7200:7206   */\n      dup3\n        /* \"#utility.yul\":7189:7198   */\n      dup9\n        /* \"#utility.yul\":7185:7207   */\n      add\n        /* \"#utility.yul\":7164:7217   */\n      tag_66\n      jump\t// in\n    tag_175:\n        /* \"#utility.yul\":7154:7217   */\n      swap4\n      pop\n        /* \"#utility.yul\":7109:7227   */\n      pop\n        /* \"#utility.yul\":7294:7296   */\n      0x40\n        /* \"#utility.yul\":7283:7292   */\n      dup6\n        /* \"#utility.yul\":7279:7297   */\n      add\n        /* \"#utility.yul\":7266:7298   */\n      calldataload\n        /* \"#utility.yul\":7325:7343   */\n      0xffffffffffffffff\n        /* \"#utility.yul\":7317:7323   */\n      dup2\n        /* \"#utility.yul\":7314:7344   */\n      gt\n        /* \"#utility.yul\":7311:7428   */\n      iszero\n      tag_176\n      jumpi\n        /* \"#utility.yul\":7347:7426   */\n      tag_177\n      tag_63\n      jump\t// in\n    tag_177:\n        /* \"#utility.yul\":7311:7428   */\n    tag_176:\n        /* \"#utility.yul\":7452:7515   */\n      tag_178\n        /* \"#utility.yul\":7507:7514   */\n      dup8\n        /* \"#utility.yul\":7498:7504   */\n      dup3\n        /* \"#utility.yul\":7487:7496   */\n      dup9\n        /* \"#utility.yul\":7483:7505   */\n      add\n        /* \"#utility.yul\":7452:7515   */\n      tag_81\n      jump\t// in\n    tag_178:\n        /* \"#utility.yul\":7442:7515   */\n      swap3\n      pop\n        /* \"#utility.yul\":7237:7525   */\n      pop\n        /* \"#utility.yul\":7564:7566   */\n      0x60\n        /* \"#utility.yul\":7590:7643   */\n      tag_179\n        /* \"#utility.yul\":7635:7642   */\n      dup8\n        /* \"#utility.yul\":7626:7632   */\n      dup3\n        /* \"#utility.yul\":7615:7624   */\n      dup9\n        /* \"#utility.yul\":7611:7633   */\n      add\n        /* \"#utility.yul\":7590:7643   */\n      tag_66\n      jump\t// in\n    tag_179:\n        /* \"#utility.yul\":7580:7643   */\n      swap2\n      pop\n        /* \"#utility.yul\":7535:7653   */\n      pop\n        /* \"#utility.yul\":6535:7660   */\n      swap3\n      swap6\n      swap2\n      swap5\n      pop\n      swap3\n      pop\n      jump\t// out\n        /* \"#utility.yul\":7666:7846   */\n    tag_82:\n        /* \"#utility.yul\":7714:7791   */\n      0x4e487b7100000000000000000000000000000000000000000000000000000000\n        /* \"#utility.yul\":7711:7712   */\n      0x00\n        /* \"#utility.yul\":7704:7792   */\n      mstore\n        /* \"#utility.yul\":7811:7815   */\n      0x22\n        /* \"#utility.yul\":7808:7809   */\n      0x04\n        /* \"#utility.yul\":7801:7816   */\n      mstore\n        /* \"#utility.yul\":7835:7839   */\n      0x24\n        /* \"#utility.yul\":7832:7833   */\n      0x00\n        /* \"#utility.yul\":7825:7840   */\n      revert\n        /* \"#utility.yul\":7852:8172   */\n    tag_31:\n        /* \"#utility.yul\":7896:7902   */\n      0x00\n        /* \"#utility.yul\":7933:7934   */\n      0x02\n        /* \"#utility.yul\":7927:7931   */\n      dup3\n        /* \"#utility.yul\":7923:7935   */\n      div\n        /* \"#utility.yul\":7913:7935   */\n      swap1\n      pop\n        /* \"#utility.yul\":7980:7981   */\n      0x01\n        /* \"#utility.yul\":7974:7978   */\n      dup3\n        /* \"#utility.yul\":7970:7982   */\n      and\n        /* \"#utility.yul\":8001:8019   */\n      dup1\n        /* \"#utility.yul\":7991:8072   */\n      tag_182\n      jumpi\n        /* \"#utility.yul\":8057:8061   */\n      0x7f\n        /* \"#utility.yul\":8049:8055   */\n      dup3\n        /* \"#utility.yul\":8045:8062   */\n      and\n        /* \"#utility.yul\":8035:8062   */\n      swap2\n      pop\n        /* \"#utility.yul\":7991:8072   */\n    tag_182:\n        /* \"#utility.yul\":8119:8121   */\n      0x20\n        /* \"#utility.yul\":8111:8117   */\n      dup3\n        /* \"#utility.yul\":8108:8122   */\n      lt\n        /* \"#utility.yul\":8088:8106   */\n      dup2\n        /* \"#utility.yul\":8085:8123   */\n      sub\n        /* \"#utility.yul\":8082:8166   */\n      tag_183\n      jumpi\n        /* \"#utility.yul\":8138:8156   */\n      tag_184\n      tag_82\n      jump\t// in\n    tag_184:\n        /* \"#utility.yul\":8082:8166   */\n    tag_183:\n        /* \"#utility.yul\":7903:8172   */\n      pop\n        /* \"#utility.yul\":7852:8172   */\n      swap2\n      swap1\n      pop\n      jump\t// out\n        /* \"#utility.yul\":8178:8319   */\n    tag_83:\n        /* \"#utility.yul\":8227:8231   */\n      0x00\n        /* \"#utility.yul\":8250:8253   */\n      dup2\n        /* \"#utility.yul\":8242:8253   */\n      swap1\n      pop\n        /* \"#utility.yul\":8273:8276   */\n      dup2\n        /* \"#utility.yul\":8270:8271   */\n      0x00\n        /* \"#utility.yul\":8263:8277   */\n      mstore\n        /* \"#utility.yul\":8307:8311   */\n      0x20\n        /* \"#utility.yul\":8304:8305   */\n      0x00\n        /* \"#utility.yul\":8294:8312   */\n      keccak256\n        /* \"#utility.yul\":8286:8312   */\n      swap1\n      pop\n        /* \"#utility.yul\":8178:8319   */\n      swap2\n      swap1\n      pop\n      jump\t// out\n        /* \"#utility.yul\":8325:8418   */\n    tag_84:\n        /* \"#utility.yul\":8362:8368   */\n      0x00\n        /* \"#utility.yul\":8409:8411   */\n      0x20\n        /* \"#utility.yul\":8404:8406   */\n      0x1f\n        /* \"#utility.yul\":8397:8402   */\n      dup4\n        /* \"#utility.yul\":8393:8407   */\n      add\n        /* \"#utility.yul\":8389:8412   */\n      div\n        /* \"#utility.yul\":8379:8412   */\n      swap1\n      pop\n        /* \"#utility.yul\":8325:8418   */\n      swap2\n      swap1\n      pop\n      jump\t// out\n        /* \"#utility.yul\":8424:8531   */\n    tag_85:\n        /* \"#utility.yul\":8468:8476   */\n      0x00\n        /* \"#utility.yul\":8518:8523   */\n      dup3\n        /* \"#utility.yul\":8512:8516   */\n      dup3\n        /* \"#utility.yul\":8508:8524   */\n      shl\n        /* \"#utility.yul\":8487:8524   */\n      swap1\n      pop\n        /* \"#utility.yul\":8424:8531   */\n      swap3\n      swap2\n      pop\n      pop\n      jump\t// out\n        /* \"#utility.yul\":8537:8930   */\n    tag_86:\n        /* \"#utility.yul\":8606:8612   */\n      0x00\n        /* \"#utility.yul\":8656:8657   */\n      0x08\n        /* \"#utility.yul\":8644:8654   */\n      dup4\n        /* \"#utility.yul\":8640:8658   */\n      mul\n        /* \"#utility.yul\":8679:8776   */\n      tag_189\n        /* \"#utility.yul\":8709:8775   */\n      0xffffffffffffffffffffffffffffffffffffffffffffffffffffffffffffffff\n        /* \"#utility.yul\":8698:8707   */\n      dup3\n        /* \"#utility.yul\":8679:8776   */\n      tag_85\n      jump\t// in\n    tag_189:\n        /* \"#utility.yul\":8797:8836   */\n      tag_190\n        /* \"#utility.yul\":8827:8835   */\n      dup7\n        /* \"#utility.yul\":8816:8825   */\n      dup4\n        /* \"#utility.yul\":8797:8836   */\n      tag_85\n      jump\t// in\n    tag_190:\n        /* \"#utility.yul\":8785:8836   */\n      swap6\n      pop\n        /* \"#utility.yul\":8869:8873   */\n      dup1\n        /* \"#utility.yul\":8865:8874   */\n      not\n        /* \"#utility.yul\":8858:8863   */\n      dup5\n        /* \"#utility.yul\":8854:8875   */\n      and\n        /* \"#utility.yul\":8845:8875   */\n      swap4\n      pop\n        /* \"#utility.yul\":8918:8922   */\n      dup1\n        /* \"#utility.yul\":8908:8916   */\n      dup7\n        /* \"#utility.yul\":8904:8923   */\n      and\n        /* \"#utility.yul\":8897:8902   */\n      dup5\n        /* \"#utility.yul\":8894:8924   */\n      or\n        /* \"#utility.yul\":8884:8924   */\n      swap3\n      pop\n        /* \"#utility.yul\":8613:8930   */\n      pop\n      pop\n        /* \"#utility.yul\":8537:8930   */\n      swap4\n      swap3\n      pop\n      pop\n      pop\n      jump\t// out\n        /* \"#utility.yul\":8936:8996   */\n    tag_87:\n        /* \"#utility.yul\":8964:8967   */\n      0x00\n        /* \"#utility.yul\":8985:8990   */\n      dup2\n        /* \"#utility.yul\":8978:8990   */\n      swap1\n      pop\n        /* \"#utility.yul\":8936:8996   */\n      swap2\n      swap1\n      pop\n      jump\t// out\n        /* \"#utility.yul\":9002:9144   */\n    tag_88:\n        /* \"#utility.yul\":9052:9061   */\n      0x00\n        /* \"#utility.yul\":9085:9138   */\n      tag_193\n        /* \"#utility.yul\":9103:9137   */\n      tag_194\n        /* \"#utility.yul\":9112:9136   */\n      tag_195\n        /* \"#utility.yul\":9130:9135   */\n      dup5\n        /* \"#utility.yul\":9112:9136   */\n      tag_64\n      jump\t// in\n    tag_195:\n        /* \"#utility.yul\":9103:9137   */\n      tag_87\n      jump\t// in\n    tag_194:\n        /* \"#utility.yul\":9085:9138   */\n      tag_64\n      jump\t// in\n    tag_193:\n        /* \"#utility.yul\":9072:9138   */\n      swap1\n      pop\n        /* \"#utility.yul\":9002:9144   */\n      swap2\n      swap1\n      pop\n      jump\t// out\n        /* \"#utility.yul\":9150:9225   */\n    tag_89:\n        /* \"#utility.yul\":9193:9196   */\n      0x00\n        /* \"#utility.yul\":9214:9219   */\n      dup2\n        /* \"#utility.yul\":9207:9219   */\n      swap1\n      pop\n        /* \"#utility.yul\":9150:9225   */\n      swap2\n      swap1\n      pop\n      jump\t// out\n        /* \"#utility.yul\":9231:9500   */\n    tag_90:\n        /* \"#utility.yul\":9341:9380   */\n      tag_198\n        /* \"#utility.yul\":9372:9379   */\n      dup4\n        /* \"#utility.yul\":9341:9380   */\n      tag_88\n      jump\t// in\n    tag_198:\n        /* \"#utility.yul\":9402:9493   */\n      tag_199\n        /* \"#utility.yul\":9451:9492   */\n      tag_200\n        /* \"#utility.yul\":9475:9491   */\n      dup3\n        /* \"#utility.yul\":9451:9492   */\n      tag_89\n      jump\t// in\n    tag_200:\n        /* \"#utility.yul\":9443:9449   */\n      dup5\n        /* \"#utility.yul\":9436:9440   */\n      dup5\n        /* \"#utility.yul\":9430:9441   */\n      sload\n        /* \"#utility.yul\":9402:9493   */\n      tag_86\n      jump\t// in\n    tag_199:\n        /* \"#utility.yul\":9396:9400   */\n      dup3\n        /* \"#utility.yul\":9389:9494   */\n      sstore\n        /* \"#utility.yul\":9307:9500   */\n      pop\n        /* \"#utility.yul\":9231:9500   */\n      pop\n      pop\n      pop\n      jump\t// out\n        /* \"#utility.yul\":9506:9579   */\n    tag_91:\n        /* \"#utility.yul\":9551:9554   */\n      0x00\n        /* \"#utility.yul\":9506:9579   */\n      swap1\n      jump\t// out\n        /* \"#utility.yul\":9585:9774   */\n    tag_92:\n        /* \"#utility.yul\":9662:9694   */\n      tag_203\n      tag_91\n      jump\t// in\n    tag_203:\n        /* \"#utility.yul\":9703:9768   */\n      tag_204\n        /* \"#utility.yul\":9761:9767   */\n      dup2\n        /* \"#utility.yul\":9753:9759   */\n      dup5\n        /* \"#utility.yul\":9747:9751   */\n      dup5\n        /* \"#utility.yul\":9703:9768   */\n      tag_90\n      jump\t// in\n    tag_204:\n        /* \"#utility.yul\":9638:9774   */\n      pop\n        /* \"#utility.yul\":9585:9774   */\n      pop\n      pop\n      jump\t// out\n        /* \"#utility.yul\":9780:9966   */\n    tag_93:\n        /* \"#utility.yul\":9840:9960   */\n    tag_206:\n        /* \"#utility.yul\":9857:9860   */\n      dup2\n        /* \"#utility.yul\":9850:9855   */\n      dup2\n        /* \"#utility.yul\":9847:9861   */\n      lt\n        /* \"#utility.yul\":9840:9960   */\n      iszero\n      tag_208\n      jumpi\n        /* \"#utility.yul\":9911:9950   */\n      tag_209\n        /* \"#utility.yul\":9948:9949   */\n      0x00\n        /* \"#utility.yul\":9941:9946   */\n      dup3\n        /* \"#utility.yul\":9911:9950   */\n      tag_92\n      jump\t// in\n    tag_209:\n        /* \"#utility.yul\":9884:9885   */\n      0x01\n        /* \"#utility.yul\":9877:9882   */\n      dup2\n        /* \"#utility.yul\":9873:9886   */\n      add\n        /* \"#utility.yul\":9864:9886   */\n      swap1\n      pop\n        /* \"#utility.yul\":9840:9960   */\n      jump(tag_206)\n    tag_208:\n        /* \"#utility.yul\":9780:9966   */\n      pop\n      pop\n      jump\t// out\n        /* \"#utility.yul\":9972:10515   */\n    tag_94:\n        /* \"#utility.yul\":10073:10075   */\n      0x1f\n        /* \"#utility.yul\":10068:10071   */\n      dup3\n        /* \"#utility.yul\":10065:10076   */\n      gt\n        /* \"#utility.yul\":10062:10508   */\n      iszero\n      tag_211\n      jumpi\n        /* \"#utility.yul\":10107:10145   */\n      tag_212\n        /* \"#utility.yul\":10139:10144   */\n      dup2\n        /* \"#utility.yul\":10107:10145   */\n      tag_83\n      jump\t// in\n    tag_212:\n        /* \"#utility.yul\":10191:10220   */\n      tag_213\n        /* \"#utility.yul\":10209:10219   */\n      dup5\n        /* \"#utility.yul\":10191:10220   */\n      tag_84\n      jump\t// in\n    tag_213:\n        /* \"#utility.yul\":10181:10189   */\n      dup2\n        /* \"#utility.yul\":10177:10221   */\n      add\n        /* \"#utility.yul\":10374:10376   */\n      0x20\n        /* \"#utility.yul\":10362:10372   */\n      dup6\n        /* \"#utility.yul\":10359:10377   */\n      lt\n        /* \"#utility.yul\":10356:10405   */\n      iszero\n      tag_214\n      jumpi\n        /* \"#utility.yul\":10395:10403   */\n      dup2\n        /* \"#utility.yul\":10380:10403   */\n      swap1\n      pop\n        /* \"#utility.yul\":10356:10405   */\n    tag_214:\n        /* \"#utility.yul\":10418:10498   */\n      tag_215\n        /* \"#utility.yul\":10474:10496   */\n      tag_216\n        /* \"#utility.yul\":10492:10495   */\n      dup6\n        /* \"#utility.yul\":10474:10496   */\n      tag_84\n      jump\t// in\n    tag_216:\n        /* \"#utility.yul\":10464:10472   */\n      dup4\n        /* \"#utility.yul\":10460:10497   */\n      add\n        /* \"#utility.yul\":10447:10458   */\n      dup3\n        /* \"#utility.yul\":10418:10498   */\n      tag_93\n      jump\t// in\n    tag_215:\n        /* \"#utility.yul\":10077:10508   */\n      pop\n      pop\n        /* \"#utility.yul\":10062:10508   */\n    tag_211:\n        /* \"#utility.yul\":9972:10515   */\n      pop\n      pop\n      pop\n      jump\t// out\n        /* \"#utility.yul\":10521:10638   */\n    tag_95:\n        /* \"#utility.yul\":10575:10583   */\n      0x00\n        /* \"#utility.yul\":10625:10630   */\n      dup3\n        /* \"#utility.yul\":10619:10623   */\n      dup3\n        /* \"#utility.yul\":10615:10631   */\n      shr\n        /* \"#utility.yul\":10594:10631   */\n      swap1\n      pop\n        /* \"#utility.yul\":10521:10638   */\n      swap3\n      swap2\n      pop\n      pop\n      jump\t// out\n        /* \"#utility.yul\":10644:10813   */\n    tag_96:\n        /* \"#utility.yul\":10688:10694   */\n      0x00\n        /* \"#utility.yul\":10721:10772   */\n      tag_219\n        /* \"#utility.yul\":10769:10770   */\n      0x00\n        /* \"#utility.yul\":10765:10771   */\n      not\n        /* \"#utility.yul\":10757:10762   */\n      dup5\n        /* \"#utility.yul\":10754:10755   */\n      0x08\n        /* \"#utility.yul\":10750:10763   */\n      mul\n        /* \"#utility.yul\":10721:10772   */\n      tag_95\n      jump\t// in\n    tag_219:\n        /* \"#utility.yul\":10717:10773   */\n      not\n        /* \"#utility.yul\":10802:10806   */\n      dup1\n        /* \"#utility.yul\":10796:10800   */\n      dup4\n        /* \"#utility.yul\":10792:10807   */\n      and\n        /* \"#utility.yul\":10782:10807   */\n      swap2\n      pop\n        /* \"#utility.yul\":10695:10813   */\n      pop\n        /* \"#utility.yul\":10644:10813   */\n      swap3\n      swap2\n      pop\n      pop\n      jump\t// out\n        /* \"#utility.yul\":10818:11113   */\n    tag_97:\n        /* \"#utility.yul\":10894:10898   */\n      0x00\n        /* \"#utility.yul\":11040:11069   */\n      tag_221\n        /* \"#utility.yul\":11065:11068   */\n      dup4\n        /* \"#utility.yul\":11059:11063   */\n      dup4\n        /* \"#utility.yul\":11040:11069   */\n      tag_96\n      jump\t// in\n    tag_221:\n        /* \"#utility.yul\":11032:11069   */\n      swap2\n      pop\n        /* \"#utility.yul\":11102:11105   */\n      dup3\n        /* \"#utility.yul\":11099:11100   */\n      0x02\n        /* \"#utility.yul\":11095:11106   */\n      mul\n        /* \"#utility.yul\":11089:11093   */\n      dup3\n        /* \"#utility.yul\":11086:11107   */\n      or\n        /* \"#utility.yul\":11078:11107   */\n      swap1\n      pop\n        /* \"#utility.yul\":10818:11113   */\n      swap3\n      swap2\n      pop\n      pop\n      jump\t// out\n        /* \"#utility.yul\":11118:12513   */\n    tag_43:\n        /* \"#utility.yul\":11235:11272   */\n      tag_223\n        /* \"#utility.yul\":11268:11271   */\n      dup3\n        /* \"#utility.yul\":11235:11272   */\n      tag_68\n      jump\t// in\n    tag_223:\n        /* \"#utility.yul\":11337:11355   */\n      0xffffffffffffffff\n        /* \"#utility.yul\":11329:11335   */\n      dup2\n        /* \"#utility.yul\":11326:11356   */\n      gt\n        /* \"#utility.yul\":11323:11379   */\n      iszero\n      tag_224\n      jumpi\n        /* \"#utility.yul\":11359:11377   */\n      tag_225\n      tag_75\n      jump\t// in\n    tag_225:\n        /* \"#utility.yul\":11323:11379   */\n    tag_224:\n        /* \"#utility.yul\":11403:11441   */\n      tag_226\n        /* \"#utility.yul\":11435:11439   */\n      dup3\n        /* \"#utility.yul\":11429:11440   */\n      sload\n        /* \"#utility.yul\":11403:11441   */\n      tag_31\n      jump\t// in\n    tag_226:\n        /* \"#utility.yul\":11488:11555   */\n      tag_227\n        /* \"#utility.yul\":11548:11554   */\n      dup3\n        /* \"#utility.yul\":11540:11546   */\n      dup3\n        /* \"#utility.yul\":11534:11538   */\n      dup6\n        /* \"#utility.yul\":11488:11555   */\n      tag_94\n      jump\t// in\n    tag_227:\n        /* \"#utility.yul\":11582:11583   */\n      0x00\n        /* \"#utility.yul\":11606:11610   */\n      0x20\n        /* \"#utility.yul\":11593:11610   */\n      swap1\n      pop\n        /* \"#utility.yul\":11638:11640   */\n      0x1f\n        /* \"#utility.yul\":11630:11636   */\n      dup4\n        /* \"#utility.yul\":11627:11641   */\n      gt\n        /* \"#utility.yul\":11655:11656   */\n      0x01\n        /* \"#utility.yul\":11650:12268   */\n      dup2\n      eq\n      tag_229\n      jumpi\n        /* \"#utility.yul\":12312:12313   */\n      0x00\n        /* \"#utility.yul\":12329:12335   */\n      dup5\n        /* \"#utility.yul\":12326:12403   */\n      iszero\n      tag_230\n      jumpi\n        /* \"#utility.yul\":12378:12387   */\n      dup3\n        /* \"#utility.yul\":12373:12376   */\n      dup8\n        /* \"#utility.yul\":12369:12388   */\n      add\n        /* \"#utility.yul\":12363:12389   */\n      mload\n        /* \"#utility.yul\":12354:12389   */\n      swap1\n      pop\n        /* \"#utility.yul\":12326:12403   */\n    tag_230:\n        /* \"#utility.yul\":12429:12496   */\n      tag_231\n        /* \"#utility.yul\":12489:12495   */\n      dup6\n        /* \"#utility.yul\":12482:12487   */\n      dup3\n        /* \"#utility.yul\":12429:12496   */\n      tag_97\n      jump\t// in\n    tag_231:\n        /* \"#utility.yul\":12423:12427   */\n      dup7\n        /* \"#utility.yul\":12416:12497   */\n      sstore\n        /* \"#utility.yul\":12285:12507   */\n      pop\n        /* \"#utility.yul\":11620:12507   */\n      jump(tag_228)\n        /* \"#utility.yul\":11650:12268   */\n    tag_229:\n        /* \"#utility.yul\":11702:11706   */\n      0x1f\n        /* \"#utility.yul\":11698:11707   */\n      not\n        /* \"#utility.yul\":11690:11696   */\n      dup5\n        /* \"#utility.yul\":11686:11708   */\n      and\n        /* \"#utility.yul\":11736:11773   */\n      tag_232\n        /* \"#utility.yul\":11768:11772   */\n      dup7\n        /* \"#utility.yul\":11736:11773   */\n      tag_83\n      jump\t// in\n    tag_232:\n        /* \"#utility.yul\":11795:11796   */\n      0x00\n        /* \"#utility.yul\":11809:12017   */\n    tag_233:\n        /* \"#utility.yul\":11823:11830   */\n      dup3\n        /* \"#utility.yul\":11820:11821   */\n      dup2\n        /* \"#utility.yul\":11817:11831   */\n      lt\n        /* \"#utility.yul\":11809:12017   */\n      iszero\n      tag_235\n      jumpi\n        /* \"#utility.yul\":11902:11911   */\n      dup5\n        /* \"#utility.yul\":11897:11900   */\n      dup10\n        /* \"#utility.yul\":11893:11912   */\n      add\n        /* \"#utility.yul\":11887:11913   */\n      mload\n        /* \"#utility.yul\":11879:11885   */\n      dup3\n        /* \"#utility.yul\":11872:11914   */\n      sstore\n        /* \"#utility.yul\":11953:11954   */\n      0x01\n        /* \"#utility.yul\":11945:11951   */\n      dup3\n        /* \"#utility.yul\":11941:11955   */\n      add\n        /* \"#utility.yul\":11931:11955   */\n      swap2\n      pop\n        /* \"#utility.yul\":12000:12002   */\n      0x20\n        /* \"#utility.yul\":11989:11998   */\n      dup6\n        /* \"#utility.yul\":11985:12003   */\n      add\n        /* \"#utility.yul\":11972:12003   */\n      swap5\n      pop\n        /* \"#utility.yul\":11846:11850   */\n      0x20\n        /* \"#utility.yul\":11843:11844   */\n      dup2\n        /* \"#utility.yul\":11839:11851   */\n      add\n        /* \"#utility.yul\":11834:11851   */\n      swap1\n      pop\n        /* \"#utility.yul\":11809:12017   */\n      jump(tag_233)\n    tag_235:\n        /* \"#utility.yul\":12045:12051   */\n      dup7\n        /* \"#utility.yul\":12036:12043   */\n      dup4\n        /* \"#utility.yul\":12033:12052   */\n      lt\n        /* \"#utility.yul\":12030:12209   */\n      iszero\n      tag_236\n      jumpi\n        /* \"#utility.yul\":12103:12112   */\n      dup5\n        /* \"#utility.yul\":12098:12101   */\n      dup10\n        /* \"#utility.yul\":12094:12113   */\n      add\n        /* \"#utility.yul\":12088:12114   */\n      mload\n        /* \"#utility.yul\":12146:12194   */\n      tag_237\n        /* \"#utility.yul\":12188:12192   */\n      0x1f\n        /* \"#utility.yul\":12180:12186   */\n      dup10\n        /* \"#utility.yul\":12176:12193   */\n      and\n        /* \"#utility.yul\":12165:12174   */\n      dup3\n        /* \"#utility.yul\":12146:12194   */\n      tag_96\n      jump\t// in\n    tag_237:\n        /* \"#utility.yul\":12138:12144   */\n      dup4\n        /* \"#utility.yul\":12131:12195   */\n      sstore\n        /* \"#utility.yul\":12053:12209   */\n      pop\n        /* \"#utility.yul\":12030:12209   */\n    tag_236:\n        /* \"#utility.yul\":12255:12256   */\n      0x01\n        /* \"#utility.yul\":12251:12252   */\n      0x02\n        /* \"#utility.yul\":12243:12249   */\n      dup9\n        /* \"#utility.yul\":12239:12253   */\n      mul\n        /* \"#utility.yul\":12235:12257   */\n      add\n        /* \"#utility.yul\":12229:12233   */\n      dup9\n        /* \"#utility.yul\":12222:12258   */\n      sstore\n        /* \"#utility.yul\":11657:12268   */\n      pop\n      pop\n      pop\n        /* \"#utility.yul\":11620:12507   */\n    tag_228:\n      pop\n        /* \"#utility.yul\":11210:12513   */\n      pop\n      pop\n      pop\n        /* \"#utility.yul\":11118:12513   */\n      pop\n      pop\n      jump\t// out\n        /* \"#utility.yul\":12519:12699   */\n    tag_98:\n        /* \"#utility.yul\":12567:12644   */\n      0x4e487b7100000000000000000000000000000000000000000000000000000000\n        /* \"#utility.yul\":12564:12565   */\n      0x00\n        /* \"#utility.yul\":12557:12645   */\n      mstore\n        /* \"#utility.yul\":12664:12668   */\n      0x11\n        /* \"#utility.yul\":12661:12662   */\n      0x04\n        /* \"#utility.yul\":12654:12669   */\n      mstore\n        /* \"#utility.yul\":12688:12692   */\n      0x24\n        /* \"#utility.yul\":12685:12686   */\n      0x00\n        /* \"#utility.yul\":12678:12693   */\n      revert\n        /* \"#utility.yul\":12705:12938   */\n    tag_49:\n        /* \"#utility.yul\":12744:12747   */\n      0x00\n        /* \"#utility.yul\":12767:12791   */\n      tag_240\n        /* \"#utility.yul\":12785:12790   */\n      dup3\n        /* \"#utility.yul\":12767:12791   */\n      tag_64\n      jump\t// in\n    tag_240:\n        /* \"#utility.yul\":12758:12791   */\n      swap2\n      pop\n        /* \"#utility.yul\":12813:12879   */\n      0xffffffffffffffffffffffffffffffffffffffffffffffffffffffffffffffff\n        /* \"#utility.yul\":12806:12811   */\n      dup3\n        /* \"#utility.yul\":12803:12880   */\n      sub\n        /* \"#utility.yul\":12800:12903   */\n      tag_241\n      jumpi\n        /* \"#utility.yul\":12883:12901   */\n      tag_242\n      tag_98\n      jump\t// in\n    tag_242:\n        /* \"#utility.yul\":12800:12903   */\n    tag_241:\n        /* \"#utility.yul\":12930:12931   */\n      0x01\n        /* \"#utility.yul\":12923:12928   */\n      dup3\n        /* \"#utility.yul\":12919:12932   */\n      add\n        /* \"#utility.yul\":12912:12932   */\n      swap1\n      pop\n        /* \"#utility.yul\":12705:12938   */\n      swap2\n      swap1\n      pop\n      jump\t// out\n\n    auxdata: 0xa2646970667358221220669a654307010fa89c46e2fdf146aae081195681b5e9c5e1c083ddc8ad90f22964736f6c634300081a0033\n}\n",
				"bytecode": {
					"linkReferences": {},
					"object": "6080604052600180553480156012575f80fd5b50610c2c806100205f395ff3fe608060405234801561000f575f80fd5b5060043610610055575f3560e01c80634739326b1461005957806361b8ce8c1461008d5780637fc6ca2e146100ab5780639cde29fe146100c7578063bca9a5c5146100e3575b5f80fd5b610073600480360381019061006e9190610520565b610117565b6040516100849594939291906105ca565b60405180910390f35b610095610254565b6040516100a29190610629565b60405180910390f35b6100c560048036038101906100c0919061076e565b61025a565b005b6100e160048036038101906100dc919061081d565b6102ab565b005b6100fd60048036038101906100f89190610520565b61034e565b60405161010e9594939291906105ca565b60405180910390f35b5f602052805f5260405f205f91509050805f01549080600101805461013b906108e6565b80601f0160208091040260200160405190810160405280929190818152602001828054610167906108e6565b80156101b25780601f10610189576101008083540402835291602001916101b2565b820191905f5260205f20905b81548152906001019060200180831161019557829003601f168201915b5050505050908060020154908060030180546101cd906108e6565b80601f01602080910402602001604051908101604052809291908181526020018280546101f9906108e6565b80156102445780601f1061021b57610100808354040283529160200191610244565b820191905f5260205f20905b81548152906001019060200180831161022757829003601f168201915b5050505050908060040154905085565b60015481565b5f805f8781526020019081526020015f2090508481600101908161027e9190610ab3565b50838160020181905550828160030190816102999190610ab3565b50818160040181905550505050505050565b6040518060a001604052806001548152602001858152602001848152602001838152602001828152505f8060015481526020019081526020015f205f820151815f015560208201518160010190816103039190610ab3565b506040820151816002015560608201518160030190816103239190610ab3565b506080820151816004015590505060015f81548092919061034390610baf565b919050555050505050565b5f60605f60605f805f808881526020019081526020015f206040518060a00160405290815f820154815260200160018201805461038a906108e6565b80601f01602080910402602001604051908101604052809291908181526020018280546103b6906108e6565b80156104015780601f106103d857610100808354040283529160200191610401565b820191905f5260205f20905b8154815290600101906020018083116103e457829003601f168201915b5050505050815260200160028201548152602001600382018054610424906108e6565b80601f0160208091040260200160405190810160405280929190818152602001828054610450906108e6565b801561049b5780601f106104725761010080835404028352916020019161049b565b820191905f5260205f20905b81548152906001019060200180831161047e57829003601f168201915b505050505081526020016004820154815250509050805f01518160200151826040015183606001518460800151955095509550955095505091939590929450565b5f604051905090565b5f80fd5b5f80fd5b5f819050919050565b6104ff816104ed565b8114610509575f80fd5b50565b5f8135905061051a816104f6565b92915050565b5f60208284031215610535576105346104e5565b5b5f6105428482850161050c565b91505092915050565b610554816104ed565b82525050565b5f81519050919050565b5f82825260208201905092915050565b8281835e5f83830152505050565b5f601f19601f8301169050919050565b5f61059c8261055a565b6105a68185610564565b93506105b6818560208601610574565b6105bf81610582565b840191505092915050565b5f60a0820190506105dd5f83018861054b565b81810360208301526105ef8187610592565b90506105fe604083018661054b565b81810360608301526106108185610592565b905061061f608083018461054b565b9695505050505050565b5f60208201905061063c5f83018461054b565b92915050565b5f80fd5b5f80fd5b7f4e487b71000000000000000000000000000000000000000000000000000000005f52604160045260245ffd5b61068082610582565b810181811067ffffffffffffffff8211171561069f5761069e61064a565b5b80604052505050565b5f6106b16104dc565b90506106bd8282610677565b919050565b5f67ffffffffffffffff8211156106dc576106db61064a565b5b6106e582610582565b9050602081019050919050565b828183375f83830152505050565b5f61071261070d846106c2565b6106a8565b90508281526020810184848401111561072e5761072d610646565b5b6107398482856106f2565b509392505050565b5f82601f83011261075557610754610642565b5b8135610765848260208601610700565b91505092915050565b5f805f805f60a08688031215610787576107866104e5565b5b5f6107948882890161050c565b955050602086013567ffffffffffffffff8111156107b5576107b46104e9565b5b6107c188828901610741565b94505060406107d28882890161050c565b935050606086013567ffffffffffffffff8111156107f3576107f26104e9565b5b6107ff88828901610741565b92505060806108108882890161050c565b9150509295509295909350565b5f805f8060808587031215610835576108346104e5565b5b5f85013567ffffffffffffffff811115610852576108516104e9565b5b61085e87828801610741565b945050602061086f8782880161050c565b935050604085013567ffffffffffffffff8111156108905761088f6104e9565b5b61089c87828801610741565b92505060606108ad8782880161050c565b91505092959194509250565b7f4e487b71000000000000000000000000000000000000000000000000000000005f52602260045260245ffd5b5f60028204905060018216806108fd57607f821691505b6020821081036109105761090f6108b9565b5b50919050565b5f819050815f5260205f209050919050565b5f6020601f8301049050919050565b5f82821b905092915050565b5f600883026109727fffffffffffffffffffffffffffffffffffffffffffffffffffffffffffffffff82610937565b61097c8683610937565b95508019841693508086168417925050509392505050565b5f819050919050565b5f6109b76109b26109ad846104ed565b610994565b6104ed565b9050919050565b5f819050919050565b6109d08361099d565b6109e46109dc826109be565b848454610943565b825550505050565b5f90565b6109f86109ec565b610a038184846109c7565b505050565b5b81811015610a2657610a1b5f826109f0565b600181019050610a09565b5050565b601f821115610a6b57610a3c81610916565b610a4584610928565b81016020851015610a54578190505b610a68610a6085610928565b830182610a08565b50505b505050565b5f82821c905092915050565b5f610a8b5f1984600802610a70565b1980831691505092915050565b5f610aa38383610a7c565b9150826002028217905092915050565b610abc8261055a565b67ffffffffffffffff811115610ad557610ad461064a565b5b610adf82546108e6565b610aea828285610a2a565b5f60209050601f831160018114610b1b575f8415610b09578287015190505b610b138582610a98565b865550610b7a565b601f198416610b2986610916565b5f5b82811015610b5057848901518255600182019150602085019450602081019050610b2b565b86831015610b6d5784890151610b69601f891682610a7c565b8355505b6001600288020188555050505b505050505050565b7f4e487b71000000000000000000000000000000000000000000000000000000005f52601160045260245ffd5b5f610bb9826104ed565b91507fffffffffffffffffffffffffffffffffffffffffffffffffffffffffffffffff8203610beb57610bea610b82565b5b60018201905091905056fea2646970667358221220669a654307010fa89c46e2fdf146aae081195681b5e9c5e1c083ddc8ad90f22964736f6c634300081a0033",
					"opcodes": "PUSH1 0x80 PUSH1 0x40 MSTORE PUSH1 0x1 DUP1 SSTORE CALLVALUE DUP1 ISZERO PUSH1 0x12 JUMPI PUSH0 DUP1 REVERT JUMPDEST POP PUSH2 0xC2C DUP1 PUSH2 0x20 PUSH0 CODECOPY PUSH0 RETURN INVALID PUSH1 0x80 PUSH1 0x40 MSTORE CALLVALUE DUP1 ISZERO PUSH2 0xF JUMPI PUSH0 DUP1 REVERT JUMPDEST POP PUSH1 0x4 CALLDATASIZE LT PUSH2 0x55 JUMPI PUSH0 CALLDATALOAD PUSH1 0xE0 SHR DUP1 PUSH4 0x4739326B EQ PUSH2 0x59 JUMPI DUP1 PUSH4 0x61B8CE8C EQ PUSH2 0x8D JUMPI DUP1 PUSH4 0x7FC6CA2E EQ PUSH2 0xAB JUMPI DUP1 PUSH4 0x9CDE29FE EQ PUSH2 0xC7 JUMPI DUP1 PUSH4 0xBCA9A5C5 EQ PUSH2 0xE3 JUMPI JUMPDEST PUSH0 DUP1 REVERT JUMPDEST PUSH2 0x73 PUSH1 0x4 DUP1 CALLDATASIZE SUB DUP2 ADD SWAP1 PUSH2 0x6E SWAP2 SWAP1 PUSH2 0x520 JUMP JUMPDEST PUSH2 0x117 JUMP JUMPDEST PUSH1 0x40 MLOAD PUSH2 0x84 SWAP6 SWAP5 SWAP4 SWAP3 SWAP2 SWAP1 PUSH2 0x5CA JUMP JUMPDEST PUSH1 0x40 MLOAD DUP1 SWAP2 SUB SWAP1 RETURN JUMPDEST PUSH2 0x95 PUSH2 0x254 JUMP JUMPDEST PUSH1 0x40 MLOAD PUSH2 0xA2 SWAP2 SWAP1 PUSH2 0x629 JUMP JUMPDEST PUSH1 0x40 MLOAD DUP1 SWAP2 SUB SWAP1 RETURN JUMPDEST PUSH2 0xC5 PUSH1 0x4 DUP1 CALLDATASIZE SUB DUP2 ADD SWAP1 PUSH2 0xC0 SWAP2 SWAP1 PUSH2 0x76E JUMP JUMPDEST PUSH2 0x25A JUMP JUMPDEST STOP JUMPDEST PUSH2 0xE1 PUSH1 0x4 DUP1 CALLDATASIZE SUB DUP2 ADD SWAP1 PUSH2 0xDC SWAP2 SWAP1 PUSH2 0x81D JUMP JUMPDEST PUSH2 0x2AB JUMP JUMPDEST STOP JUMPDEST PUSH2 0xFD PUSH1 0x4 DUP1 CALLDATASIZE SUB DUP2 ADD SWAP1 PUSH2 0xF8 SWAP2 SWAP1 PUSH2 0x520 JUMP JUMPDEST PUSH2 0x34E JUMP JUMPDEST PUSH1 0x40 MLOAD PUSH2 0x10E SWAP6 SWAP5 SWAP4 SWAP3 SWAP2 SWAP1 PUSH2 0x5CA JUMP JUMPDEST PUSH1 0x40 MLOAD DUP1 SWAP2 SUB SWAP1 RETURN JUMPDEST PUSH0 PUSH1 0x20 MSTORE DUP1 PUSH0 MSTORE PUSH1 0x40 PUSH0 KECCAK256 PUSH0 SWAP2 POP SWAP1 POP DUP1 PUSH0 ADD SLOAD SWAP1 DUP1 PUSH1 0x1 ADD DUP1 SLOAD PUSH2 0x13B SWAP1 PUSH2 0x8E6 JUMP JUMPDEST DUP1 PUSH1 0x1F ADD PUSH1 0x20 DUP1 SWAP2 DIV MUL PUSH1 0x20 ADD PUSH1 0x40 MLOAD SWAP1 DUP2 ADD PUSH1 0x40 MSTORE DUP1 SWAP3 SWAP2 SWAP1 DUP2 DUP2 MSTORE PUSH1 0x20 ADD DUP3 DUP1 SLOAD PUSH2 0x167 SWAP1 PUSH2 0x8E6 JUMP JUMPDEST DUP1 ISZERO PUSH2 0x1B2 JUMPI DUP1 PUSH1 0x1F LT PUSH2 0x189 JUMPI PUSH2 0x100 DUP1 DUP4 SLOAD DIV MUL DUP4 MSTORE SWAP2 PUSH1 0x20 ADD SWAP2 PUSH2 0x1B2 JUMP JUMPDEST DUP3 ADD SWAP2 SWAP1 PUSH0 MSTORE PUSH1 0x20 PUSH0 KECCAK256 SWAP1 JUMPDEST DUP2 SLOAD DUP2 MSTORE SWAP1 PUSH1 0x1 ADD SWAP1 PUSH1 0x20 ADD DUP1 DUP4 GT PUSH2 0x195 JUMPI DUP3 SWAP1 SUB PUSH1 0x1F AND DUP3 ADD SWAP2 JUMPDEST POP POP POP POP POP SWAP1 DUP1 PUSH1 0x2 ADD SLOAD SWAP1 DUP1 PUSH1 0x3 ADD DUP1 SLOAD PUSH2 0x1CD SWAP1 PUSH2 0x8E6 JUMP JUMPDEST DUP1 PUSH1 0x1F ADD PUSH1 0x20 DUP1 SWAP2 DIV MUL PUSH1 0x20 ADD PUSH1 0x40 MLOAD SWAP1 DUP2 ADD PUSH1 0x40 MSTORE DUP1 SWAP3 SWAP2 SWAP1 DUP2 DUP2 MSTORE PUSH1 0x20 ADD DUP3 DUP1 SLOAD PUSH2 0x1F9 SWAP1 PUSH2 0x8E6 JUMP JUMPDEST DUP1 ISZERO PUSH2 0x244 JUMPI DUP1 PUSH1 0x1F LT PUSH2 0x21B JUMPI PUSH2 0x100 DUP1 DUP4 SLOAD DIV MUL DUP4 MSTORE SWAP2 PUSH1 0x20 ADD SWAP2 PUSH2 0x244 JUMP JUMPDEST DUP3 ADD SWAP2 SWAP1 PUSH0 MSTORE PUSH1 0x20 PUSH0 KECCAK256 SWAP1 JUMPDEST DUP2 SLOAD DUP2 MSTORE SWAP1 PUSH1 0x1 ADD SWAP1 PUSH1 0x20 ADD DUP1 DUP4 GT PUSH2 0x227 JUMPI DUP3 SWAP1 SUB PUSH1 0x1F AND DUP3 ADD SWAP2 JUMPDEST POP POP POP POP POP SWAP1 DUP1 PUSH1 0x4 ADD SLOAD SWAP1 POP DUP6 JUMP JUMPDEST PUSH1 0x1 SLOAD DUP2 JUMP JUMPDEST PUSH0 DUP1 PUSH0 DUP8 DUP2 MSTORE PUSH1 0x20 ADD SWAP1 DUP2 MSTORE PUSH1 0x20 ADD PUSH0 KECCAK256 SWAP1 POP DUP5 DUP2 PUSH1 0x1 ADD SWAP1 DUP2 PUSH2 0x27E SWAP2 SWAP1 PUSH2 0xAB3 JUMP JUMPDEST POP DUP4 DUP2 PUSH1 0x2 ADD DUP2 SWAP1 SSTORE POP DUP3 DUP2 PUSH1 0x3 ADD SWAP1 DUP2 PUSH2 0x299 SWAP2 SWAP1 PUSH2 0xAB3 JUMP JUMPDEST POP DUP2 DUP2 PUSH1 0x4 ADD DUP2 SWAP1 SSTORE POP POP POP POP POP POP POP JUMP JUMPDEST PUSH1 0x40 MLOAD DUP1 PUSH1 0xA0 ADD PUSH1 0x40 MSTORE DUP1 PUSH1 0x1 SLOAD DUP2 MSTORE PUSH1 0x20 ADD DUP6 DUP2 MSTORE PUSH1 0x20 ADD DUP5 DUP2 MSTORE PUSH1 0x20 ADD DUP4 DUP2 MSTORE PUSH1 0x20 ADD DUP3 DUP2 MSTORE POP PUSH0 DUP1 PUSH1 0x1 SLOAD DUP2 MSTORE PUSH1 0x20 ADD SWAP1 DUP2 MSTORE PUSH1 0x20 ADD PUSH0 KECCAK256 PUSH0 DUP3 ADD MLOAD DUP2 PUSH0 ADD SSTORE PUSH1 0x20 DUP3 ADD MLOAD DUP2 PUSH1 0x1 ADD SWAP1 DUP2 PUSH2 0x303 SWAP2 SWAP1 PUSH2 0xAB3 JUMP JUMPDEST POP PUSH1 0x40 DUP3 ADD MLOAD DUP2 PUSH1 0x2 ADD SSTORE PUSH1 0x60 DUP3 ADD MLOAD DUP2 PUSH1 0x3 ADD SWAP1 DUP2 PUSH2 0x323 SWAP2 SWAP1 PUSH2 0xAB3 JUMP JUMPDEST POP PUSH1 0x80 DUP3 ADD MLOAD DUP2 PUSH1 0x4 ADD SSTORE SWAP1 POP POP PUSH1 0x1 PUSH0 DUP2 SLOAD DUP1 SWAP3 SWAP2 SWAP1 PUSH2 0x343 SWAP1 PUSH2 0xBAF JUMP JUMPDEST SWAP2 SWAP1 POP SSTORE POP POP POP POP POP JUMP JUMPDEST PUSH0 PUSH1 0x60 PUSH0 PUSH1 0x60 PUSH0 DUP1 PUSH0 DUP1 DUP9 DUP2 MSTORE PUSH1 0x20 ADD SWAP1 DUP2 MSTORE PUSH1 0x20 ADD PUSH0 KECCAK256 PUSH1 0x40 MLOAD DUP1 PUSH1 0xA0 ADD PUSH1 0x40 MSTORE SWAP1 DUP2 PUSH0 DUP3 ADD SLOAD DUP2 MSTORE PUSH1 0x20 ADD PUSH1 0x1 DUP3 ADD DUP1 SLOAD PUSH2 0x38A SWAP1 PUSH2 0x8E6 JUMP JUMPDEST DUP1 PUSH1 0x1F ADD PUSH1 0x20 DUP1 SWAP2 DIV MUL PUSH1 0x20 ADD PUSH1 0x40 MLOAD SWAP1 DUP2 ADD PUSH1 0x40 MSTORE DUP1 SWAP3 SWAP2 SWAP1 DUP2 DUP2 MSTORE PUSH1 0x20 ADD DUP3 DUP1 SLOAD PUSH2 0x3B6 SWAP1 PUSH2 0x8E6 JUMP JUMPDEST DUP1 ISZERO PUSH2 0x401 JUMPI DUP1 PUSH1 0x1F LT PUSH2 0x3D8 JUMPI PUSH2 0x100 DUP1 DUP4 SLOAD DIV MUL DUP4 MSTORE SWAP2 PUSH1 0x20 ADD SWAP2 PUSH2 0x401 JUMP JUMPDEST DUP3 ADD SWAP2 SWAP1 PUSH0 MSTORE PUSH1 0x20 PUSH0 KECCAK256 SWAP1 JUMPDEST DUP2 SLOAD DUP2 MSTORE SWAP1 PUSH1 0x1 ADD SWAP1 PUSH1 0x20 ADD DUP1 DUP4 GT PUSH2 0x3E4 JUMPI DUP3 SWAP1 SUB PUSH1 0x1F AND DUP3 ADD SWAP2 JUMPDEST POP POP POP POP POP DUP2 MSTORE PUSH1 0x20 ADD PUSH1 0x2 DUP3 ADD SLOAD DUP2 MSTORE PUSH1 0x20 ADD PUSH1 0x3 DUP3 ADD DUP1 SLOAD PUSH2 0x424 SWAP1 PUSH2 0x8E6 JUMP JUMPDEST DUP1 PUSH1 0x1F ADD PUSH1 0x20 DUP1 SWAP2 DIV MUL PUSH1 0x20 ADD PUSH1 0x40 MLOAD SWAP1 DUP2 ADD PUSH1 0x40 MSTORE DUP1 SWAP3 SWAP2 SWAP1 DUP2 DUP2 MSTORE PUSH1 0x20 ADD DUP3 DUP1 SLOAD PUSH2 0x450 SWAP1 PUSH2 0x8E6 JUMP JUMPDEST DUP1 ISZERO PUSH2 0x49B JUMPI DUP1 PUSH1 0x1F LT PUSH2 0x472 JUMPI PUSH2 0x100 DUP1 DUP4 SLOAD DIV MUL DUP4 MSTORE SWAP2 PUSH1 0x20 ADD SWAP2 PUSH2 0x49B JUMP JUMPDEST DUP3 ADD SWAP2 SWAP1 PUSH0 MSTORE PUSH1 0x20 PUSH0 KECCAK256 SWAP1 JUMPDEST DUP2 SLOAD DUP2 MSTORE SWAP1 PUSH1 0x1 ADD SWAP1 PUSH1 0x20 ADD DUP1 DUP4 GT PUSH2 0x47E JUMPI DUP3 SWAP1 SUB PUSH1 0x1F AND DUP3 ADD SWAP2 JUMPDEST POP POP POP POP POP DUP2 MSTORE PUSH1 0x20 ADD PUSH1 0x4 DUP3 ADD SLOAD DUP2 MSTORE POP POP SWAP1 POP DUP1 PUSH0 ADD MLOAD DUP2 PUSH1 0x20 ADD MLOAD DUP3 PUSH1 0x40 ADD MLOAD DUP4 PUSH1 0x60 ADD MLOAD DUP5 PUSH1 0x80 ADD MLOAD SWAP6 POP SWAP6 POP SWAP6 POP SWAP6 POP SWAP6 POP POP SWAP2 SWAP4 SWAP6 SWAP1 SWAP3 SWAP5 POP JUMP JUMPDEST PUSH0 PUSH1 0x40 MLOAD SWAP1 POP SWAP1 JUMP JUMPDEST PUSH0 DUP1 REVERT JUMPDEST PUSH0 DUP1 REVERT JUMPDEST PUSH0 DUP2 SWAP1 POP SWAP2 SWAP1 POP JUMP JUMPDEST PUSH2 0x4FF DUP2 PUSH2 0x4ED JUMP JUMPDEST DUP2 EQ PUSH2 0x509 JUMPI PUSH0 DUP1 REVERT JUMPDEST POP JUMP JUMPDEST PUSH0 DUP2 CALLDATALOAD SWAP1 POP PUSH2 0x51A DUP2 PUSH2 0x4F6 JUMP JUMPDEST SWAP3 SWAP2 POP POP JUMP JUMPDEST PUSH0 PUSH1 0x20 DUP3 DUP5 SUB SLT ISZERO PUSH2 0x535 JUMPI PUSH2 0x534 PUSH2 0x4E5 JUMP JUMPDEST JUMPDEST PUSH0 PUSH2 0x542 DUP5 DUP3 DUP6 ADD PUSH2 0x50C JUMP JUMPDEST SWAP2 POP POP SWAP3 SWAP2 POP POP JUMP JUMPDEST PUSH2 0x554 DUP2 PUSH2 0x4ED JUMP JUMPDEST DUP3 MSTORE POP POP JUMP JUMPDEST PUSH0 DUP2 MLOAD SWAP1 POP SWAP2 SWAP1 POP JUMP JUMPDEST PUSH0 DUP3 DUP3 MSTORE PUSH1 0x20 DUP3 ADD SWAP1 POP SWAP3 SWAP2 POP POP JUMP JUMPDEST DUP3 DUP2 DUP4 MCOPY PUSH0 DUP4 DUP4 ADD MSTORE POP POP POP JUMP JUMPDEST PUSH0 PUSH1 0x1F NOT PUSH1 0x1F DUP4 ADD AND SWAP1 POP SWAP2 SWAP1 POP JUMP JUMPDEST PUSH0 PUSH2 0x59C DUP3 PUSH2 0x55A JUMP JUMPDEST PUSH2 0x5A6 DUP2 DUP6 PUSH2 0x564 JUMP JUMPDEST SWAP4 POP PUSH2 0x5B6 DUP2 DUP6 PUSH1 0x20 DUP7 ADD PUSH2 0x574 JUMP JUMPDEST PUSH2 0x5BF DUP2 PUSH2 0x582 JUMP JUMPDEST DUP5 ADD SWAP2 POP POP SWAP3 SWAP2 POP POP JUMP JUMPDEST PUSH0 PUSH1 0xA0 DUP3 ADD SWAP1 POP PUSH2 0x5DD PUSH0 DUP4 ADD DUP9 PUSH2 0x54B JUMP JUMPDEST DUP2 DUP2 SUB PUSH1 0x20 DUP4 ADD MSTORE PUSH2 0x5EF DUP2 DUP8 PUSH2 0x592 JUMP JUMPDEST SWAP1 POP PUSH2 0x5FE PUSH1 0x40 DUP4 ADD DUP7 PUSH2 0x54B JUMP JUMPDEST DUP2 DUP2 SUB PUSH1 0x60 DUP4 ADD MSTORE PUSH2 0x610 DUP2 DUP6 PUSH2 0x592 JUMP JUMPDEST SWAP1 POP PUSH2 0x61F PUSH1 0x80 DUP4 ADD DUP5 PUSH2 0x54B JUMP JUMPDEST SWAP7 SWAP6 POP POP POP POP POP POP JUMP JUMPDEST PUSH0 PUSH1 0x20 DUP3 ADD SWAP1 POP PUSH2 0x63C PUSH0 DUP4 ADD DUP5 PUSH2 0x54B JUMP JUMPDEST SWAP3 SWAP2 POP POP JUMP JUMPDEST PUSH0 DUP1 REVERT JUMPDEST PUSH0 DUP1 REVERT JUMPDEST PUSH32 0x4E487B7100000000000000000000000000000000000000000000000000000000 PUSH0 MSTORE PUSH1 0x41 PUSH1 0x4 MSTORE PUSH1 0x24 PUSH0 REVERT JUMPDEST PUSH2 0x680 DUP3 PUSH2 0x582 JUMP JUMPDEST DUP2 ADD DUP2 DUP2 LT PUSH8 0xFFFFFFFFFFFFFFFF DUP3 GT OR ISZERO PUSH2 0x69F JUMPI PUSH2 0x69E PUSH2 0x64A JUMP JUMPDEST JUMPDEST DUP1 PUSH1 0x40 MSTORE POP POP POP JUMP JUMPDEST PUSH0 PUSH2 0x6B1 PUSH2 0x4DC JUMP JUMPDEST SWAP1 POP PUSH2 0x6BD DUP3 DUP3 PUSH2 0x677 JUMP JUMPDEST SWAP2 SWAP1 POP JUMP JUMPDEST PUSH0 PUSH8 0xFFFFFFFFFFFFFFFF DUP3 GT ISZERO PUSH2 0x6DC JUMPI PUSH2 0x6DB PUSH2 0x64A JUMP JUMPDEST JUMPDEST PUSH2 0x6E5 DUP3 PUSH2 0x582 JUMP JUMPDEST SWAP1 POP PUSH1 0x20 DUP2 ADD SWAP1 POP SWAP2 SWAP1 POP JUMP JUMPDEST DUP3 DUP2 DUP4 CALLDATACOPY PUSH0 DUP4 DUP4 ADD MSTORE POP POP POP JUMP JUMPDEST PUSH0 PUSH2 0x712 PUSH2 0x70D DUP5 PUSH2 0x6C2 JUMP JUMPDEST PUSH2 0x6A8 JUMP JUMPDEST SWAP1 POP DUP3 DUP2 MSTORE PUSH1 0x20 DUP2 ADD DUP5 DUP5 DUP5 ADD GT ISZERO PUSH2 0x72E JUMPI PUSH2 0x72D PUSH2 0x646 JUMP JUMPDEST JUMPDEST PUSH2 0x739 DUP5 DUP3 DUP6 PUSH2 0x6F2 JUMP JUMPDEST POP SWAP4 SWAP3 POP POP POP JUMP JUMPDEST PUSH0 DUP3 PUSH1 0x1F DUP4 ADD SLT PUSH2 0x755 JUMPI PUSH2 0x754 PUSH2 0x642 JUMP JUMPDEST JUMPDEST DUP2 CALLDATALOAD PUSH2 0x765 DUP5 DUP3 PUSH1 0x20 DUP7 ADD PUSH2 0x700 JUMP JUMPDEST SWAP2 POP POP SWAP3 SWAP2 POP POP JUMP JUMPDEST PUSH0 DUP1 PUSH0 DUP1 PUSH0 PUSH1 0xA0 DUP7 DUP9 SUB SLT ISZERO PUSH2 0x787 JUMPI PUSH2 0x786 PUSH2 0x4E5 JUMP JUMPDEST JUMPDEST PUSH0 PUSH2 0x794 DUP9 DUP3 DUP10 ADD PUSH2 0x50C JUMP JUMPDEST SWAP6 POP POP PUSH1 0x20 DUP7 ADD CALLDATALOAD PUSH8 0xFFFFFFFFFFFFFFFF DUP2 GT ISZERO PUSH2 0x7B5 JUMPI PUSH2 0x7B4 PUSH2 0x4E9 JUMP JUMPDEST JUMPDEST PUSH2 0x7C1 DUP9 DUP3 DUP10 ADD PUSH2 0x741 JUMP JUMPDEST SWAP5 POP POP PUSH1 0x40 PUSH2 0x7D2 DUP9 DUP3 DUP10 ADD PUSH2 0x50C JUMP JUMPDEST SWAP4 POP POP PUSH1 0x60 DUP7 ADD CALLDATALOAD PUSH8 0xFFFFFFFFFFFFFFFF DUP2 GT ISZERO PUSH2 0x7F3 JUMPI PUSH2 0x7F2 PUSH2 0x4E9 JUMP JUMPDEST JUMPDEST PUSH2 0x7FF DUP9 DUP3 DUP10 ADD PUSH2 0x741 JUMP JUMPDEST SWAP3 POP POP PUSH1 0x80 PUSH2 0x810 DUP9 DUP3 DUP10 ADD PUSH2 0x50C JUMP JUMPDEST SWAP2 POP POP SWAP3 SWAP6 POP SWAP3 SWAP6 SWAP1 SWAP4 POP JUMP JUMPDEST PUSH0 DUP1 PUSH0 DUP1 PUSH1 0x80 DUP6 DUP8 SUB SLT ISZERO PUSH2 0x835 JUMPI PUSH2 0x834 PUSH2 0x4E5 JUMP JUMPDEST JUMPDEST PUSH0 DUP6 ADD CALLDATALOAD PUSH8 0xFFFFFFFFFFFFFFFF DUP2 GT ISZERO PUSH2 0x852 JUMPI PUSH2 0x851 PUSH2 0x4E9 JUMP JUMPDEST JUMPDEST PUSH2 0x85E DUP8 DUP3 DUP9 ADD PUSH2 0x741 JUMP JUMPDEST SWAP5 POP POP PUSH1 0x20 PUSH2 0x86F DUP8 DUP3 DUP9 ADD PUSH2 0x50C JUMP JUMPDEST SWAP4 POP POP PUSH1 0x40 DUP6 ADD CALLDATALOAD PUSH8 0xFFFFFFFFFFFFFFFF DUP2 GT ISZERO PUSH2 0x890 JUMPI PUSH2 0x88F PUSH2 0x4E9 JUMP JUMPDEST JUMPDEST PUSH2 0x89C DUP8 DUP3 DUP9 ADD PUSH2 0x741 JUMP JUMPDEST SWAP3 POP POP PUSH1 0x60 PUSH2 0x8AD DUP8 DUP3 DUP9 ADD PUSH2 0x50C JUMP JUMPDEST SWAP2 POP POP SWAP3 SWAP6 SWAP2 SWAP5 POP SWAP3 POP JUMP JUMPDEST PUSH32 0x4E487B7100000000000000000000000000000000000000000000000000000000 PUSH0 MSTORE PUSH1 0x22 PUSH1 0x4 MSTORE PUSH1 0x24 PUSH0 REVERT JUMPDEST PUSH0 PUSH1 0x2 DUP3 DIV SWAP1 POP PUSH1 0x1 DUP3 AND DUP1 PUSH2 0x8FD JUMPI PUSH1 0x7F DUP3 AND SWAP2 POP JUMPDEST PUSH1 0x20 DUP3 LT DUP2 SUB PUSH2 0x910 JUMPI PUSH2 0x90F PUSH2 0x8B9 JUMP JUMPDEST JUMPDEST POP SWAP2 SWAP1 POP JUMP JUMPDEST PUSH0 DUP2 SWAP1 POP DUP2 PUSH0 MSTORE PUSH1 0x20 PUSH0 KECCAK256 SWAP1 POP SWAP2 SWAP1 POP JUMP JUMPDEST PUSH0 PUSH1 0x20 PUSH1 0x1F DUP4 ADD DIV SWAP1 POP SWAP2 SWAP1 POP JUMP JUMPDEST PUSH0 DUP3 DUP3 SHL SWAP1 POP SWAP3 SWAP2 POP POP JUMP JUMPDEST PUSH0 PUSH1 0x8 DUP4 MUL PUSH2 0x972 PUSH32 0xFFFFFFFFFFFFFFFFFFFFFFFFFFFFFFFFFFFFFFFFFFFFFFFFFFFFFFFFFFFFFFFF DUP3 PUSH2 0x937 JUMP JUMPDEST PUSH2 0x97C DUP7 DUP4 PUSH2 0x937 JUMP JUMPDEST SWAP6 POP DUP1 NOT DUP5 AND SWAP4 POP DUP1 DUP7 AND DUP5 OR SWAP3 POP POP POP SWAP4 SWAP3 POP POP POP JUMP JUMPDEST PUSH0 DUP2 SWAP1 POP SWAP2 SWAP1 POP JUMP JUMPDEST PUSH0 PUSH2 0x9B7 PUSH2 0x9B2 PUSH2 0x9AD DUP5 PUSH2 0x4ED JUMP JUMPDEST PUSH2 0x994 JUMP JUMPDEST PUSH2 0x4ED JUMP JUMPDEST SWAP1 POP SWAP2 SWAP1 POP JUMP JUMPDEST PUSH0 DUP2 SWAP1 POP SWAP2 SWAP1 POP JUMP JUMPDEST PUSH2 0x9D0 DUP4 PUSH2 0x99D JUMP JUMPDEST PUSH2 0x9E4 PUSH2 0x9DC DUP3 PUSH2 0x9BE JUMP JUMPDEST DUP5 DUP5 SLOAD PUSH2 0x943 JUMP JUMPDEST DUP3 SSTORE POP POP POP POP JUMP JUMPDEST PUSH0 SWAP1 JUMP JUMPDEST PUSH2 0x9F8 PUSH2 0x9EC JUMP JUMPDEST PUSH2 0xA03 DUP2 DUP5 DUP5 PUSH2 0x9C7 JUMP JUMPDEST POP POP POP JUMP JUMPDEST JUMPDEST DUP2 DUP2 LT ISZERO PUSH2 0xA26 JUMPI PUSH2 0xA1B PUSH0 DUP3 PUSH2 0x9F0 JUMP JUMPDEST PUSH1 0x1 DUP2 ADD SWAP1 POP PUSH2 0xA09 JUMP JUMPDEST POP POP JUMP JUMPDEST PUSH1 0x1F DUP3 GT ISZERO PUSH2 0xA6B JUMPI PUSH2 0xA3C DUP2 PUSH2 0x916 JUMP JUMPDEST PUSH2 0xA45 DUP5 PUSH2 0x928 JUMP JUMPDEST DUP2 ADD PUSH1 0x20 DUP6 LT ISZERO PUSH2 0xA54 JUMPI DUP2 SWAP1 POP JUMPDEST PUSH2 0xA68 PUSH2 0xA60 DUP6 PUSH2 0x928 JUMP JUMPDEST DUP4 ADD DUP3 PUSH2 0xA08 JUMP JUMPDEST POP POP JUMPDEST POP POP POP JUMP JUMPDEST PUSH0 DUP3 DUP3 SHR SWAP1 POP SWAP3 SWAP2 POP POP JUMP JUMPDEST PUSH0 PUSH2 0xA8B PUSH0 NOT DUP5 PUSH1 0x8 MUL PUSH2 0xA70 JUMP JUMPDEST NOT DUP1 DUP4 AND SWAP2 POP POP SWAP3 SWAP2 POP POP JUMP JUMPDEST PUSH0 PUSH2 0xAA3 DUP4 DUP4 PUSH2 0xA7C JUMP JUMPDEST SWAP2 POP DUP3 PUSH1 0x2 MUL DUP3 OR SWAP1 POP SWAP3 SWAP2 POP POP JUMP JUMPDEST PUSH2 0xABC DUP3 PUSH2 0x55A JUMP JUMPDEST PUSH8 0xFFFFFFFFFFFFFFFF DUP2 GT ISZERO PUSH2 0xAD5 JUMPI PUSH2 0xAD4 PUSH2 0x64A JUMP JUMPDEST JUMPDEST PUSH2 0xADF DUP3 SLOAD PUSH2 0x8E6 JUMP JUMPDEST PUSH2 0xAEA DUP3 DUP3 DUP6 PUSH2 0xA2A JUMP JUMPDEST PUSH0 PUSH1 0x20 SWAP1 POP PUSH1 0x1F DUP4 GT PUSH1 0x1 DUP2 EQ PUSH2 0xB1B JUMPI PUSH0 DUP5 ISZERO PUSH2 0xB09 JUMPI DUP3 DUP8 ADD MLOAD SWAP1 POP JUMPDEST PUSH2 0xB13 DUP6 DUP3 PUSH2 0xA98 JUMP JUMPDEST DUP7 SSTORE POP PUSH2 0xB7A JUMP JUMPDEST PUSH1 0x1F NOT DUP5 AND PUSH2 0xB29 DUP7 PUSH2 0x916 JUMP JUMPDEST PUSH0 JUMPDEST DUP3 DUP2 LT ISZERO PUSH2 0xB50 JUMPI DUP5 DUP10 ADD MLOAD DUP3 SSTORE PUSH1 0x1 DUP3 ADD SWAP2 POP PUSH1 0x20 DUP6 ADD SWAP5 POP PUSH1 0x20 DUP2 ADD SWAP1 POP PUSH2 0xB2B JUMP JUMPDEST DUP7 DUP4 LT ISZERO PUSH2 0xB6D JUMPI DUP5 DUP10 ADD MLOAD PUSH2 0xB69 PUSH1 0x1F DUP10 AND DUP3 PUSH2 0xA7C JUMP JUMPDEST DUP4 SSTORE POP JUMPDEST PUSH1 0x1 PUSH1 0x2 DUP9 MUL ADD DUP9 SSTORE POP POP POP JUMPDEST POP POP POP POP POP POP JUMP JUMPDEST PUSH32 0x4E487B7100000000000000000000000000000000000000000000000000000000 PUSH0 MSTORE PUSH1 0x11 PUSH1 0x4 MSTORE PUSH1 0x24 PUSH0 REVERT JUMPDEST PUSH0 PUSH2 0xBB9 DUP3 PUSH2 0x4ED JUMP JUMPDEST SWAP2 POP PUSH32 0xFFFFFFFFFFFFFFFFFFFFFFFFFFFFFFFFFFFFFFFFFFFFFFFFFFFFFFFFFFFFFFFF DUP3 SUB PUSH2 0xBEB JUMPI PUSH2 0xBEA PUSH2 0xB82 JUMP JUMPDEST JUMPDEST PUSH1 0x1 DUP3 ADD SWAP1 POP SWAP2 SWAP1 POP JUMP INVALID LOG2 PUSH5 0x6970667358 0x22 SLT KECCAK256 PUSH7 0x9A654307010FA8 SWAP13 CHAINID 0xE2 REVERT CALL CHAINID 0xAA 0xE0 DUP2 NOT JUMP DUP2 0xB5 0xE9 0xC5 0xE1 0xC0 DUP4 0xDD 0xC8 0xAD SWAP1 CALLCODE 0x29 PUSH5 0x736F6C6343 STOP ADDMOD BYTE STOP CALLER "
				},
				"gasEstimates": {
					"creation": {
						"codeDepositCost": "623200",
						"executionCost": "22761",
						"totalCost": "645961"
					},
					"external": {
						"addEmployee(string,uint256,string,uint256)": "infinite",
						"employees(uint256)": "infinite",
						"getEmployee(uint256)": "infinite",
						"nextId()": "2425",
						"updateEmployee(uint256,string,uint256,string,uint256)": "infinite"
					}
				},
				"methodIdentifiers": {
					"addEmployee(string,uint256,string,uint256)": "9cde29fe",
					"employees(uint256)": "4739326b",
					"getEmployee(uint256)": "bca9a5c5",
					"nextId()": "61b8ce8c",
					"updateEmployee(uint256,string,uint256,string,uint256)": "7fc6ca2e"
				}
			},
			"storageLayout": {
				"storage": [
					{
						"astId": 17,
						"contract": "struct.sol:EmployeeContract",
						"label": "employees",
						"offset": 0,
						"slot": "0",
						"type": "t_mapping(t_uint256,t_struct(Employee)12_storage)"
					},
					{
						"astId": 20,
						"contract": "struct.sol:EmployeeContract",
						"label": "nextId",
						"offset": 0,
						"slot": "1",
						"type": "t_uint256"
					}
				],
				"types": {
					"t_mapping(t_uint256,t_struct(Employee)12_storage)": {
						"encoding": "mapping",
						"key": "t_uint256",
						"label": "mapping(uint256 => struct EmployeeContract.Employee)",
						"numberOfBytes": "32",
						"value": "t_struct(Employee)12_storage"
					},
					"t_string_storage": {
						"encoding": "bytes",
						"label": "string",
						"numberOfBytes": "32"
					},
					"t_struct(Employee)12_storage": {
						"encoding": "inplace",
						"label": "struct EmployeeContract.Employee",
						"members": [
							{
								"astId": 3,
								"contract": "struct.sol:EmployeeContract",
								"label": "id",
								"offset": 0,
								"slot": "0",
								"type": "t_uint256"
							},
							{
								"astId": 5,
								"contract": "struct.sol:EmployeeContract",
								"label": "name",
								"offset": 0,
								"slot": "1",
								"type": "t_string_storage"
							},
							{
								"astId": 7,
								"contract": "struct.sol:EmployeeContract",
								"label": "age",
								"offset": 0,
								"slot": "2",
								"type": "t_uint256"
							},
							{
								"astId": 9,
								"contract": "struct.sol:EmployeeContract",
								"label": "position",
								"offset": 0,
								"slot": "3",
								"type": "t_string_storage"
							},
							{
								"astId": 11,
								"contract": "struct.sol:EmployeeContract",
								"label": "salary",
								"offset": 0,
								"slot": "4",
								"type": "t_uint256"
							}
						],
						"numberOfBytes": "160"
					},
					"t_uint256": {
						"encoding": "inplace",
						"label": "uint256",
						"numberOfBytes": "32"
					}
				}
			},
			"userdoc": {
				"kind": "user",
				"methods": {},
				"version": 1
			}
		}
	}
}