{
	"data": {
		"bytecode": {
			"linkReferences": {},
			"object": "608060405234801561000f575f80fd5b50604051610cc6380380610cc683398181016040528101906100319190610336565b5f815111610074576040517f08c379a000000000000000000000000000000000000000000000000000000000815260040161006b906103d7565b60405180910390fd5b5f5b81518110156101745760015f80848481518110610096576100956103f5565b5b602002602001015173ffffffffffffffffffffffffffffffffffffffff1673ffffffffffffffffffffffffffffffffffffffff1681526020019081526020015f205f6101000a81548160ff0219169083151502179055506001828281518110610102576101016103f5565b5b6020026020010151908060018154018082558091505060019003905f5260205f20015f9091909190916101000a81548173ffffffffffffffffffffffffffffffffffffffff021916908373ffffffffffffffffffffffffffffffffffffffff1602179055508080600101915050610076565b5050610422565b5f604051905090565b5f80fd5b5f80fd5b5f80fd5b5f601f19601f8301169050919050565b7f4e487b71000000000000000000000000000000000000000000000000000000005f52604160045260245ffd5b6101d682610190565b810181811067ffffffffffffffff821117156101f5576101f46101a0565b5b80604052505050565b5f61020761017b565b905061021382826101cd565b919050565b5f67ffffffffffffffff821115610232576102316101a0565b5b602082029050602081019050919050565b5f80fd5b5f73ffffffffffffffffffffffffffffffffffffffff82169050919050565b5f61027082610247565b9050919050565b61028081610266565b811461028a575f80fd5b50565b5f8151905061029b81610277565b92915050565b5f6102b36102ae84610218565b6101fe565b905080838252602082019050602084028301858111156102d6576102d5610243565b5b835b818110156102ff57806102eb888261028d565b8452602084019350506020810190506102d8565b5050509392505050565b5f82601f83011261031d5761031c61018c565b5b815161032d8482602086016102a1565b91505092915050565b5f6020828403121561034b5761034a610184565b5b5f82015167ffffffffffffffff81111561036857610367610188565b5b61037484828501610309565b91505092915050565b5f82825260208201905092915050565b7f4d7573742068617665206174206c65617374206f6e65206f776e6572000000005f82015250565b5f6103c1601c8361037d565b91506103cc8261038d565b602082019050919050565b5f6020820190508181035f8301526103ee816103b5565b9050919050565b7f4e487b71000000000000000000000000000000000000000000000000000000005f52603260045260245ffd5b6108978061042f5f395ff3fe608060405234801561000f575f80fd5b506004361061003f575f3560e01c8063022914a7146100435780635a60aa6814610073578063def79ab51461008f575b5f80fd5b61005d60048036038101906100589190610296565b6100bf565b60405161006a91906102db565b60405180910390f35b61008d600480360381019061008891906106c5565b6100db565b005b6100a960048036038101906100a49190610769565b6101f0565b6040516100b691906107a3565b60405180910390f35b5f602052805f5260405f205f915054906101000a900460ff1681565b5f5b600180549050811015610159575f8282815181106100fe576100fd6107bc565b5b602002602001015190505f81511161014b576040517f08c379a000000000000000000000000000000000000000000000000000000000815260040161014290610843565b60405180910390fd5b5080806001019150506100dd565b505f5b83518110156101ea57838181518110610178576101776107bc565b5b602002602001015173ffffffffffffffffffffffffffffffffffffffff166108fc8483815181106101ac576101ab6107bc565b5b602002602001015190811502906040515f60405180830381858888f193505050501580156101dc573d5f803e3d5ffd5b50808060010191505061015c565b50505050565b600181815481106101ff575f80fd5b905f5260205f20015f915054906101000a900473ffffffffffffffffffffffffffffffffffffffff1681565b5f604051905090565b5f80fd5b5f80fd5b5f73ffffffffffffffffffffffffffffffffffffffff82169050919050565b5f6102658261023c565b9050919050565b6102758161025b565b811461027f575f80fd5b50565b5f813590506102908161026c565b92915050565b5f602082840312156102ab576102aa610234565b5b5f6102b884828501610282565b91505092915050565b5f8115159050919050565b6102d5816102c1565b82525050565b5f6020820190506102ee5f8301846102cc565b92915050565b5f80fd5b5f601f19601f8301169050919050565b7f4e487b71000000000000000000000000000000000000000000000000000000005f52604160045260245ffd5b61033e826102f8565b810181811067ffffffffffffffff8211171561035d5761035c610308565b5b80604052505050565b5f61036f61022b565b905061037b8282610335565b919050565b5f67ffffffffffffffff82111561039a57610399610308565b5b602082029050602081019050919050565b5f80fd5b5f6103c16103bc84610380565b610366565b905080838252602082019050602084028301858111156103e4576103e36103ab565b5b835b8181101561040d57806103f98882610282565b8452602084019350506020810190506103e6565b5050509392505050565b5f82601f83011261042b5761042a6102f4565b5b813561043b8482602086016103af565b91505092915050565b5f67ffffffffffffffff82111561045e5761045d610308565b5b602082029050602081019050919050565b5f819050919050565b6104818161046f565b811461048b575f80fd5b50565b5f8135905061049c81610478565b92915050565b5f6104b46104af84610444565b610366565b905080838252602082019050602084028301858111156104d7576104d66103ab565b5b835b8181101561050057806104ec888261048e565b8452602084019350506020810190506104d9565b5050509392505050565b5f82601f83011261051e5761051d6102f4565b5b813561052e8482602086016104a2565b91505092915050565b5f67ffffffffffffffff82111561055157610550610308565b5b602082029050602081019050919050565b5f80fd5b5f67ffffffffffffffff8211156105805761057f610308565b5b610589826102f8565b9050602081019050919050565b828183375f83830152505050565b5f6105b66105b184610566565b610366565b9050828152602081018484840111156105d2576105d1610562565b5b6105dd848285610596565b509392505050565b5f82601f8301126105f9576105f86102f4565b5b81356106098482602086016105a4565b91505092915050565b5f61062461061f84610537565b610366565b90508083825260208201905060208402830185811115610647576106466103ab565b5b835b8181101561068e57803567ffffffffffffffff81111561066c5761066b6102f4565b5b80860161067989826105e5565b85526020850194505050602081019050610649565b5050509392505050565b5f82601f8301126106ac576106ab6102f4565b5b81356106bc848260208601610612565b91505092915050565b5f805f606084860312156106dc576106db610234565b5b5f84013567ffffffffffffffff8111156106f9576106f8610238565b5b61070586828701610417565b935050602084013567ffffffffffffffff81111561072657610725610238565b5b6107328682870161050a565b925050604084013567ffffffffffffffff81111561075357610752610238565b5b61075f86828701610698565b9150509250925092565b5f6020828403121561077e5761077d610234565b5b5f61078b8482850161048e565b91505092915050565b61079d8161025b565b82525050565b5f6020820190506107b65f830184610794565b92915050565b7f4e487b71000000000000000000000000000000000000000000000000000000005f52603260045260245ffd5b5f82825260208201905092915050565b7f496e76616c6964207369676e61747572650000000000000000000000000000005f82015250565b5f61082d6011836107e9565b9150610838826107f9565b602082019050919050565b5f6020820190508181035f83015261085a81610821565b905091905056fea2646970667358221220d317802219082a4ec03cf2aa2313e2bd0f9755e5580b35cb6f40876de146fe9764736f6c634300081a0033",
			"opcodes": "PUSH1 0x80 PUSH1 0x40 MSTORE CALLVALUE DUP1 ISZERO PUSH2 0xF JUMPI PUSH0 DUP1 REVERT JUMPDEST POP PUSH1 0x40 MLOAD PUSH2 0xCC6 CODESIZE SUB DUP1 PUSH2 0xCC6 DUP4 CODECOPY DUP2 DUP2 ADD PUSH1 0x40 MSTORE DUP2 ADD SWAP1 PUSH2 0x31 SWAP2 SWAP1 PUSH2 0x336 JUMP JUMPDEST PUSH0 DUP2 MLOAD GT PUSH2 0x74 JUMPI PUSH1 0x40 MLOAD PUSH32 0x8C379A000000000000000000000000000000000000000000000000000000000 DUP2 MSTORE PUSH1 0x4 ADD PUSH2 0x6B SWAP1 PUSH2 0x3D7 JUMP JUMPDEST PUSH1 0x40 MLOAD DUP1 SWAP2 SUB SWAP1 REVERT JUMPDEST PUSH0 JUMPDEST DUP2 MLOAD DUP2 LT ISZERO PUSH2 0x174 JUMPI PUSH1 0x1 PUSH0 DUP1 DUP5 DUP5 DUP2 MLOAD DUP2 LT PUSH2 0x96 JUMPI PUSH2 0x95 PUSH2 0x3F5 JUMP JUMPDEST JUMPDEST PUSH1 0x20 MUL PUSH1 0x20 ADD ADD MLOAD PUSH20 0xFFFFFFFFFFFFFFFFFFFFFFFFFFFFFFFFFFFFFFFF AND PUSH20 0xFFFFFFFFFFFFFFFFFFFFFFFFFFFFFFFFFFFFFFFF AND DUP2 MSTORE PUSH1 0x20 ADD SWAP1 DUP2 MSTORE PUSH1 0x20 ADD PUSH0 KECCAK256 PUSH0 PUSH2 0x100 EXP DUP2 SLOAD DUP2 PUSH1 0xFF MUL NOT AND SWAP1 DUP4 ISZERO ISZERO MUL OR SWAP1 SSTORE POP PUSH1 0x1 DUP3 DUP3 DUP2 MLOAD DUP2 LT PUSH2 0x102 JUMPI PUSH2 0x101 PUSH2 0x3F5 JUMP JUMPDEST JUMPDEST PUSH1 0x20 MUL PUSH1 0x20 ADD ADD MLOAD SWAP1 DUP1 PUSH1 0x1 DUP2 SLOAD ADD DUP1 DUP3 SSTORE DUP1 SWAP2 POP POP PUSH1 0x1 SWAP1 SUB SWAP1 PUSH0 MSTORE PUSH1 0x20 PUSH0 KECCAK256 ADD PUSH0 SWAP1 SWAP2 SWAP1 SWAP2 SWAP1 SWAP2 PUSH2 0x100 EXP DUP2 SLOAD DUP2 PUSH20 0xFFFFFFFFFFFFFFFFFFFFFFFFFFFFFFFFFFFFFFFF MUL NOT AND SWAP1 DUP4 PUSH20 0xFFFFFFFFFFFFFFFFFFFFFFFFFFFFFFFFFFFFFFFF AND MUL OR SWAP1 SSTORE POP DUP1 DUP1 PUSH1 0x1 ADD SWAP2 POP POP PUSH2 0x76 JUMP JUMPDEST POP POP PUSH2 0x422 JUMP JUMPDEST PUSH0 PUSH1 0x40 MLOAD SWAP1 POP SWAP1 JUMP JUMPDEST PUSH0 DUP1 REVERT JUMPDEST PUSH0 DUP1 REVERT JUMPDEST PUSH0 DUP1 REVERT JUMPDEST PUSH0 PUSH1 0x1F NOT PUSH1 0x1F DUP4 ADD AND SWAP1 POP SWAP2 SWAP1 POP JUMP JUMPDEST PUSH32 0x4E487B7100000000000000000000000000000000000000000000000000000000 PUSH0 MSTORE PUSH1 0x41 PUSH1 0x4 MSTORE PUSH1 0x24 PUSH0 REVERT JUMPDEST PUSH2 0x1D6 DUP3 PUSH2 0x190 JUMP JUMPDEST DUP2 ADD DUP2 DUP2 LT PUSH8 0xFFFFFFFFFFFFFFFF DUP3 GT OR ISZERO PUSH2 0x1F5 JUMPI PUSH2 0x1F4 PUSH2 0x1A0 JUMP JUMPDEST JUMPDEST DUP1 PUSH1 0x40 MSTORE POP POP POP JUMP JUMPDEST PUSH0 PUSH2 0x207 PUSH2 0x17B JUMP JUMPDEST SWAP1 POP PUSH2 0x213 DUP3 DUP3 PUSH2 0x1CD JUMP JUMPDEST SWAP2 SWAP1 POP JUMP JUMPDEST PUSH0 PUSH8 0xFFFFFFFFFFFFFFFF DUP3 GT ISZERO PUSH2 0x232 JUMPI PUSH2 0x231 PUSH2 0x1A0 JUMP JUMPDEST JUMPDEST PUSH1 0x20 DUP3 MUL SWAP1 POP PUSH1 0x20 DUP2 ADD SWAP1 POP SWAP2 SWAP1 POP JUMP JUMPDEST PUSH0 DUP1 REVERT JUMPDEST PUSH0 PUSH20 0xFFFFFFFFFFFFFFFFFFFFFFFFFFFFFFFFFFFFFFFF DUP3 AND SWAP1 POP SWAP2 SWAP1 POP JUMP JUMPDEST PUSH0 PUSH2 0x270 DUP3 PUSH2 0x247 JUMP JUMPDEST SWAP1 POP SWAP2 SWAP1 POP JUMP JUMPDEST PUSH2 0x280 DUP2 PUSH2 0x266 JUMP JUMPDEST DUP2 EQ PUSH2 0x28A JUMPI PUSH0 DUP1 REVERT JUMPDEST POP JUMP JUMPDEST PUSH0 DUP2 MLOAD SWAP1 POP PUSH2 0x29B DUP2 PUSH2 0x277 JUMP JUMPDEST SWAP3 SWAP2 POP POP JUMP JUMPDEST PUSH0 PUSH2 0x2B3 PUSH2 0x2AE DUP5 PUSH2 0x218 JUMP JUMPDEST PUSH2 0x1FE JUMP JUMPDEST SWAP1 POP DUP1 DUP4 DUP3 MSTORE PUSH1 0x20 DUP3 ADD SWAP1 POP PUSH1 0x20 DUP5 MUL DUP4 ADD DUP6 DUP2 GT ISZERO PUSH2 0x2D6 JUMPI PUSH2 0x2D5 PUSH2 0x243 JUMP JUMPDEST JUMPDEST DUP4 JUMPDEST DUP2 DUP2 LT ISZERO PUSH2 0x2FF JUMPI DUP1 PUSH2 0x2EB DUP9 DUP3 PUSH2 0x28D JUMP JUMPDEST DUP5 MSTORE PUSH1 0x20 DUP5 ADD SWAP4 POP POP PUSH1 0x20 DUP2 ADD SWAP1 POP PUSH2 0x2D8 JUMP JUMPDEST POP POP POP SWAP4 SWAP3 POP POP POP JUMP JUMPDEST PUSH0 DUP3 PUSH1 0x1F DUP4 ADD SLT PUSH2 0x31D JUMPI PUSH2 0x31C PUSH2 0x18C JUMP JUMPDEST JUMPDEST DUP2 MLOAD PUSH2 0x32D DUP5 DUP3 PUSH1 0x20 DUP7 ADD PUSH2 0x2A1 JUMP JUMPDEST SWAP2 POP POP SWAP3 SWAP2 POP POP JUMP JUMPDEST PUSH0 PUSH1 0x20 DUP3 DUP5 SUB SLT ISZERO PUSH2 0x34B JUMPI PUSH2 0x34A PUSH2 0x184 JUMP JUMPDEST JUMPDEST PUSH0 DUP3 ADD MLOAD PUSH8 0xFFFFFFFFFFFFFFFF DUP2 GT ISZERO PUSH2 0x368 JUMPI PUSH2 0x367 PUSH2 0x188 JUMP JUMPDEST JUMPDEST PUSH2 0x374 DUP5 DUP3 DUP6 ADD PUSH2 0x309 JUMP JUMPDEST SWAP2 POP POP SWAP3 SWAP2 POP POP JUMP JUMPDEST PUSH0 DUP3 DUP3 MSTORE PUSH1 0x20 DUP3 ADD SWAP1 POP SWAP3 SWAP2 POP POP JUMP JUMPDEST PUSH32 0x4D7573742068617665206174206C65617374206F6E65206F776E657200000000 PUSH0 DUP3 ADD MSTORE POP JUMP JUMPDEST PUSH0 PUSH2 0x3C1 PUSH1 0x1C DUP4 PUSH2 0x37D JUMP JUMPDEST SWAP2 POP PUSH2 0x3CC DUP3 PUSH2 0x38D JUMP JUMPDEST PUSH1 0x20 DUP3 ADD SWAP1 POP SWAP2 SWAP1 POP JUMP JUMPDEST PUSH0 PUSH1 0x20 DUP3 ADD SWAP1 POP DUP2 DUP2 SUB PUSH0 DUP4 ADD MSTORE PUSH2 0x3EE DUP2 PUSH2 0x3B5 JUMP JUMPDEST SWAP1 POP SWAP2 SWAP1 POP JUMP JUMPDEST PUSH32 0x4E487B7100000000000000000000000000000000000000000000000000000000 PUSH0 MSTORE PUSH1 0x32 PUSH1 0x4 MSTORE PUSH1 0x24 PUSH0 REVERT JUMPDEST PUSH2 0x897 DUP1 PUSH2 0x42F PUSH0 CODECOPY PUSH0 RETURN INVALID PUSH1 0x80 PUSH1 0x40 MSTORE CALLVALUE DUP1 ISZERO PUSH2 0xF JUMPI PUSH0 DUP1 REVERT JUMPDEST POP PUSH1 0x4 CALLDATASIZE LT PUSH2 0x3F JUMPI PUSH0 CALLDATALOAD PUSH1 0xE0 SHR DUP1 PUSH4 0x22914A7 EQ PUSH2 0x43 JUMPI DUP1 PUSH4 0x5A60AA68 EQ PUSH2 0x73 JUMPI DUP1 PUSH4 0xDEF79AB5 EQ PUSH2 0x8F JUMPI JUMPDEST PUSH0 DUP1 REVERT JUMPDEST PUSH2 0x5D PUSH1 0x4 DUP1 CALLDATASIZE SUB DUP2 ADD SWAP1 PUSH2 0x58 SWAP2 SWAP1 PUSH2 0x296 JUMP JUMPDEST PUSH2 0xBF JUMP JUMPDEST PUSH1 0x40 MLOAD PUSH2 0x6A SWAP2 SWAP1 PUSH2 0x2DB JUMP JUMPDEST PUSH1 0x40 MLOAD DUP1 SWAP2 SUB SWAP1 RETURN JUMPDEST PUSH2 0x8D PUSH1 0x4 DUP1 CALLDATASIZE SUB DUP2 ADD SWAP1 PUSH2 0x88 SWAP2 SWAP1 PUSH2 0x6C5 JUMP JUMPDEST PUSH2 0xDB JUMP JUMPDEST STOP JUMPDEST PUSH2 0xA9 PUSH1 0x4 DUP1 CALLDATASIZE SUB DUP2 ADD SWAP1 PUSH2 0xA4 SWAP2 SWAP1 PUSH2 0x769 JUMP JUMPDEST PUSH2 0x1F0 JUMP JUMPDEST PUSH1 0x40 MLOAD PUSH2 0xB6 SWAP2 SWAP1 PUSH2 0x7A3 JUMP JUMPDEST PUSH1 0x40 MLOAD DUP1 SWAP2 SUB SWAP1 RETURN JUMPDEST PUSH0 PUSH1 0x20 MSTORE DUP1 PUSH0 MSTORE PUSH1 0x40 PUSH0 KECCAK256 PUSH0 SWAP2 POP SLOAD SWAP1 PUSH2 0x100 EXP SWAP1 DIV PUSH1 0xFF AND DUP2 JUMP JUMPDEST PUSH0 JUMPDEST PUSH1 0x1 DUP1 SLOAD SWAP1 POP DUP2 LT ISZERO PUSH2 0x159 JUMPI PUSH0 DUP3 DUP3 DUP2 MLOAD DUP2 LT PUSH2 0xFE JUMPI PUSH2 0xFD PUSH2 0x7BC JUMP JUMPDEST JUMPDEST PUSH1 0x20 MUL PUSH1 0x20 ADD ADD MLOAD SWAP1 POP PUSH0 DUP2 MLOAD GT PUSH2 0x14B JUMPI PUSH1 0x40 MLOAD PUSH32 0x8C379A000000000000000000000000000000000000000000000000000000000 DUP2 MSTORE PUSH1 0x4 ADD PUSH2 0x142 SWAP1 PUSH2 0x843 JUMP JUMPDEST PUSH1 0x40 MLOAD DUP1 SWAP2 SUB SWAP1 REVERT JUMPDEST POP DUP1 DUP1 PUSH1 0x1 ADD SWAP2 POP POP PUSH2 0xDD JUMP JUMPDEST POP PUSH0 JUMPDEST DUP4 MLOAD DUP2 LT ISZERO PUSH2 0x1EA JUMPI DUP4 DUP2 DUP2 MLOAD DUP2 LT PUSH2 0x178 JUMPI PUSH2 0x177 PUSH2 0x7BC JUMP JUMPDEST JUMPDEST PUSH1 0x20 MUL PUSH1 0x20 ADD ADD MLOAD PUSH20 0xFFFFFFFFFFFFFFFFFFFFFFFFFFFFFFFFFFFFFFFF AND PUSH2 0x8FC DUP5 DUP4 DUP2 MLOAD DUP2 LT PUSH2 0x1AC JUMPI PUSH2 0x1AB PUSH2 0x7BC JUMP JUMPDEST JUMPDEST PUSH1 0x20 MUL PUSH1 0x20 ADD ADD MLOAD SWAP1 DUP2 ISZERO MUL SWAP1 PUSH1 0x40 MLOAD PUSH0 PUSH1 0x40 MLOAD DUP1 DUP4 SUB DUP2 DUP6 DUP9 DUP9 CALL SWAP4 POP POP POP POP ISZERO DUP1 ISZERO PUSH2 0x1DC JUMPI RETURNDATASIZE PUSH0 DUP1 RETURNDATACOPY RETURNDATASIZE PUSH0 REVERT JUMPDEST POP DUP1 DUP1 PUSH1 0x1 ADD SWAP2 POP POP PUSH2 0x15C JUMP JUMPDEST POP POP POP POP JUMP JUMPDEST PUSH1 0x1 DUP2 DUP2 SLOAD DUP2 LT PUSH2 0x1FF JUMPI PUSH0 DUP1 REVERT JUMPDEST SWAP1 PUSH0 MSTORE PUSH1 0x20 PUSH0 KECCAK256 ADD PUSH0 SWAP2 POP SLOAD SWAP1 PUSH2 0x100 EXP SWAP1 DIV PUSH20 0xFFFFFFFFFFFFFFFFFFFFFFFFFFFFFFFFFFFFFFFF AND DUP2 JUMP JUMPDEST PUSH0 PUSH1 0x40 MLOAD SWAP1 POP SWAP1 JUMP JUMPDEST PUSH0 DUP1 REVERT JUMPDEST PUSH0 DUP1 REVERT JUMPDEST PUSH0 PUSH20 0xFFFFFFFFFFFFFFFFFFFFFFFFFFFFFFFFFFFFFFFF DUP3 AND SWAP1 POP SWAP2 SWAP1 POP JUMP JUMPDEST PUSH0 PUSH2 0x265 DUP3 PUSH2 0x23C JUMP JUMPDEST SWAP1 POP SWAP2 SWAP1 POP JUMP JUMPDEST PUSH2 0x275 DUP2 PUSH2 0x25B JUMP JUMPDEST DUP2 EQ PUSH2 0x27F JUMPI PUSH0 DUP1 REVERT JUMPDEST POP JUMP JUMPDEST PUSH0 DUP2 CALLDATALOAD SWAP1 POP PUSH2 0x290 DUP2 PUSH2 0x26C JUMP JUMPDEST SWAP3 SWAP2 POP POP JUMP JUMPDEST PUSH0 PUSH1 0x20 DUP3 DUP5 SUB SLT ISZERO PUSH2 0x2AB JUMPI PUSH2 0x2AA PUSH2 0x234 JUMP JUMPDEST JUMPDEST PUSH0 PUSH2 0x2B8 DUP5 DUP3 DUP6 ADD PUSH2 0x282 JUMP JUMPDEST SWAP2 POP POP SWAP3 SWAP2 POP POP JUMP JUMPDEST PUSH0 DUP2 ISZERO ISZERO SWAP1 POP SWAP2 SWAP1 POP JUMP JUMPDEST PUSH2 0x2D5 DUP2 PUSH2 0x2C1 JUMP JUMPDEST DUP3 MSTORE POP POP JUMP JUMPDEST PUSH0 PUSH1 0x20 DUP3 ADD SWAP1 POP PUSH2 0x2EE PUSH0 DUP4 ADD DUP5 PUSH2 0x2CC JUMP JUMPDEST SWAP3 SWAP2 POP POP JUMP JUMPDEST PUSH0 DUP1 REVERT JUMPDEST PUSH0 PUSH1 0x1F NOT PUSH1 0x1F DUP4 ADD AND SWAP1 POP SWAP2 SWAP1 POP JUMP JUMPDEST PUSH32 0x4E487B7100000000000000000000000000000000000000000000000000000000 PUSH0 MSTORE PUSH1 0x41 PUSH1 0x4 MSTORE PUSH1 0x24 PUSH0 REVERT JUMPDEST PUSH2 0x33E DUP3 PUSH2 0x2F8 JUMP JUMPDEST DUP2 ADD DUP2 DUP2 LT PUSH8 0xFFFFFFFFFFFFFFFF DUP3 GT OR ISZERO PUSH2 0x35D JUMPI PUSH2 0x35C PUSH2 0x308 JUMP JUMPDEST JUMPDEST DUP1 PUSH1 0x40 MSTORE POP POP POP JUMP JUMPDEST PUSH0 PUSH2 0x36F PUSH2 0x22B JUMP JUMPDEST SWAP1 POP PUSH2 0x37B DUP3 DUP3 PUSH2 0x335 JUMP JUMPDEST SWAP2 SWAP1 POP JUMP JUMPDEST PUSH0 PUSH8 0xFFFFFFFFFFFFFFFF DUP3 GT ISZERO PUSH2 0x39A JUMPI PUSH2 0x399 PUSH2 0x308 JUMP JUMPDEST JUMPDEST PUSH1 0x20 DUP3 MUL SWAP1 POP PUSH1 0x20 DUP2 ADD SWAP1 POP SWAP2 SWAP1 POP JUMP JUMPDEST PUSH0 DUP1 REVERT JUMPDEST PUSH0 PUSH2 0x3C1 PUSH2 0x3BC DUP5 PUSH2 0x380 JUMP JUMPDEST PUSH2 0x366 JUMP JUMPDEST SWAP1 POP DUP1 DUP4 DUP3 MSTORE PUSH1 0x20 DUP3 ADD SWAP1 POP PUSH1 0x20 DUP5 MUL DUP4 ADD DUP6 DUP2 GT ISZERO PUSH2 0x3E4 JUMPI PUSH2 0x3E3 PUSH2 0x3AB JUMP JUMPDEST JUMPDEST DUP4 JUMPDEST DUP2 DUP2 LT ISZERO PUSH2 0x40D JUMPI DUP1 PUSH2 0x3F9 DUP9 DUP3 PUSH2 0x282 JUMP JUMPDEST DUP5 MSTORE PUSH1 0x20 DUP5 ADD SWAP4 POP POP PUSH1 0x20 DUP2 ADD SWAP1 POP PUSH2 0x3E6 JUMP JUMPDEST POP POP POP SWAP4 SWAP3 POP POP POP JUMP JUMPDEST PUSH0 DUP3 PUSH1 0x1F DUP4 ADD SLT PUSH2 0x42B JUMPI PUSH2 0x42A PUSH2 0x2F4 JUMP JUMPDEST JUMPDEST DUP2 CALLDATALOAD PUSH2 0x43B DUP5 DUP3 PUSH1 0x20 DUP7 ADD PUSH2 0x3AF JUMP JUMPDEST SWAP2 POP POP SWAP3 SWAP2 POP POP JUMP JUMPDEST PUSH0 PUSH8 0xFFFFFFFFFFFFFFFF DUP3 GT ISZERO PUSH2 0x45E JUMPI PUSH2 0x45D PUSH2 0x308 JUMP JUMPDEST JUMPDEST PUSH1 0x20 DUP3 MUL SWAP1 POP PUSH1 0x20 DUP2 ADD SWAP1 POP SWAP2 SWAP1 POP JUMP JUMPDEST PUSH0 DUP2 SWAP1 POP SWAP2 SWAP1 POP JUMP JUMPDEST PUSH2 0x481 DUP2 PUSH2 0x46F JUMP JUMPDEST DUP2 EQ PUSH2 0x48B JUMPI PUSH0 DUP1 REVERT JUMPDEST POP JUMP JUMPDEST PUSH0 DUP2 CALLDATALOAD SWAP1 POP PUSH2 0x49C DUP2 PUSH2 0x478 JUMP JUMPDEST SWAP3 SWAP2 POP POP JUMP JUMPDEST PUSH0 PUSH2 0x4B4 PUSH2 0x4AF DUP5 PUSH2 0x444 JUMP JUMPDEST PUSH2 0x366 JUMP JUMPDEST SWAP1 POP DUP1 DUP4 DUP3 MSTORE PUSH1 0x20 DUP3 ADD SWAP1 POP PUSH1 0x20 DUP5 MUL DUP4 ADD DUP6 DUP2 GT ISZERO PUSH2 0x4D7 JUMPI PUSH2 0x4D6 PUSH2 0x3AB JUMP JUMPDEST JUMPDEST DUP4 JUMPDEST DUP2 DUP2 LT ISZERO PUSH2 0x500 JUMPI DUP1 PUSH2 0x4EC DUP9 DUP3 PUSH2 0x48E JUMP JUMPDEST DUP5 MSTORE PUSH1 0x20 DUP5 ADD SWAP4 POP POP PUSH1 0x20 DUP2 ADD SWAP1 POP PUSH2 0x4D9 JUMP JUMPDEST POP POP POP SWAP4 SWAP3 POP POP POP JUMP JUMPDEST PUSH0 DUP3 PUSH1 0x1F DUP4 ADD SLT PUSH2 0x51E JUMPI PUSH2 0x51D PUSH2 0x2F4 JUMP JUMPDEST JUMPDEST DUP2 CALLDATALOAD PUSH2 0x52E DUP5 DUP3 PUSH1 0x20 DUP7 ADD PUSH2 0x4A2 JUMP JUMPDEST SWAP2 POP POP SWAP3 SWAP2 POP POP JUMP JUMPDEST PUSH0 PUSH8 0xFFFFFFFFFFFFFFFF DUP3 GT ISZERO PUSH2 0x551 JUMPI PUSH2 0x550 PUSH2 0x308 JUMP JUMPDEST JUMPDEST PUSH1 0x20 DUP3 MUL SWAP1 POP PUSH1 0x20 DUP2 ADD SWAP1 POP SWAP2 SWAP1 POP JUMP JUMPDEST PUSH0 DUP1 REVERT JUMPDEST PUSH0 PUSH8 0xFFFFFFFFFFFFFFFF DUP3 GT ISZERO PUSH2 0x580 JUMPI PUSH2 0x57F PUSH2 0x308 JUMP JUMPDEST JUMPDEST PUSH2 0x589 DUP3 PUSH2 0x2F8 JUMP JUMPDEST SWAP1 POP PUSH1 0x20 DUP2 ADD SWAP1 POP SWAP2 SWAP1 POP JUMP JUMPDEST DUP3 DUP2 DUP4 CALLDATACOPY PUSH0 DUP4 DUP4 ADD MSTORE POP POP POP JUMP JUMPDEST PUSH0 PUSH2 0x5B6 PUSH2 0x5B1 DUP5 PUSH2 0x566 JUMP JUMPDEST PUSH2 0x366 JUMP JUMPDEST SWAP1 POP DUP3 DUP2 MSTORE PUSH1 0x20 DUP2 ADD DUP5 DUP5 DUP5 ADD GT ISZERO PUSH2 0x5D2 JUMPI PUSH2 0x5D1 PUSH2 0x562 JUMP JUMPDEST JUMPDEST PUSH2 0x5DD DUP5 DUP3 DUP6 PUSH2 0x596 JUMP JUMPDEST POP SWAP4 SWAP3 POP POP POP JUMP JUMPDEST PUSH0 DUP3 PUSH1 0x1F DUP4 ADD SLT PUSH2 0x5F9 JUMPI PUSH2 0x5F8 PUSH2 0x2F4 JUMP JUMPDEST JUMPDEST DUP2 CALLDATALOAD PUSH2 0x609 DUP5 DUP3 PUSH1 0x20 DUP7 ADD PUSH2 0x5A4 JUMP JUMPDEST SWAP2 POP POP SWAP3 SWAP2 POP POP JUMP JUMPDEST PUSH0 PUSH2 0x624 PUSH2 0x61F DUP5 PUSH2 0x537 JUMP JUMPDEST PUSH2 0x366 JUMP JUMPDEST SWAP1 POP DUP1 DUP4 DUP3 MSTORE PUSH1 0x20 DUP3 ADD SWAP1 POP PUSH1 0x20 DUP5 MUL DUP4 ADD DUP6 DUP2 GT ISZERO PUSH2 0x647 JUMPI PUSH2 0x646 PUSH2 0x3AB JUMP JUMPDEST JUMPDEST DUP4 JUMPDEST DUP2 DUP2 LT ISZERO PUSH2 0x68E JUMPI DUP1 CALLDATALOAD PUSH8 0xFFFFFFFFFFFFFFFF DUP2 GT ISZERO PUSH2 0x66C JUMPI PUSH2 0x66B PUSH2 0x2F4 JUMP JUMPDEST JUMPDEST DUP1 DUP7 ADD PUSH2 0x679 DUP10 DUP3 PUSH2 0x5E5 JUMP JUMPDEST DUP6 MSTORE PUSH1 0x20 DUP6 ADD SWAP5 POP POP POP PUSH1 0x20 DUP2 ADD SWAP1 POP PUSH2 0x649 JUMP JUMPDEST POP POP POP SWAP4 SWAP3 POP POP POP JUMP JUMPDEST PUSH0 DUP3 PUSH1 0x1F DUP4 ADD SLT PUSH2 0x6AC JUMPI PUSH2 0x6AB PUSH2 0x2F4 JUMP JUMPDEST JUMPDEST DUP2 CALLDATALOAD PUSH2 0x6BC DUP5 DUP3 PUSH1 0x20 DUP7 ADD PUSH2 0x612 JUMP JUMPDEST SWAP2 POP POP SWAP3 SWAP2 POP POP JUMP JUMPDEST PUSH0 DUP1 PUSH0 PUSH1 0x60 DUP5 DUP7 SUB SLT ISZERO PUSH2 0x6DC JUMPI PUSH2 0x6DB PUSH2 0x234 JUMP JUMPDEST JUMPDEST PUSH0 DUP5 ADD CALLDATALOAD PUSH8 0xFFFFFFFFFFFFFFFF DUP2 GT ISZERO PUSH2 0x6F9 JUMPI PUSH2 0x6F8 PUSH2 0x238 JUMP JUMPDEST JUMPDEST PUSH2 0x705 DUP7 DUP3 DUP8 ADD PUSH2 0x417 JUMP JUMPDEST SWAP4 POP POP PUSH1 0x20 DUP5 ADD CALLDATALOAD PUSH8 0xFFFFFFFFFFFFFFFF DUP2 GT ISZERO PUSH2 0x726 JUMPI PUSH2 0x725 PUSH2 0x238 JUMP JUMPDEST JUMPDEST PUSH2 0x732 DUP7 DUP3 DUP8 ADD PUSH2 0x50A JUMP JUMPDEST SWAP3 POP POP PUSH1 0x40 DUP5 ADD CALLDATALOAD PUSH8 0xFFFFFFFFFFFFFFFF DUP2 GT ISZERO PUSH2 0x753 JUMPI PUSH2 0x752 PUSH2 0x238 JUMP JUMPDEST JUMPDEST PUSH2 0x75F DUP7 DUP3 DUP8 ADD PUSH2 0x698 JUMP JUMPDEST SWAP2 POP POP SWAP3 POP SWAP3 POP SWAP3 JUMP JUMPDEST PUSH0 PUSH1 0x20 DUP3 DUP5 SUB SLT ISZERO PUSH2 0x77E JUMPI PUSH2 0x77D PUSH2 0x234 JUMP JUMPDEST JUMPDEST PUSH0 PUSH2 0x78B DUP5 DUP3 DUP6 ADD PUSH2 0x48E JUMP JUMPDEST SWAP2 POP POP SWAP3 SWAP2 POP POP JUMP JUMPDEST PUSH2 0x79D DUP2 PUSH2 0x25B JUMP JUMPDEST DUP3 MSTORE POP POP JUMP JUMPDEST PUSH0 PUSH1 0x20 DUP3 ADD SWAP1 POP PUSH2 0x7B6 PUSH0 DUP4 ADD DUP5 PUSH2 0x794 JUMP JUMPDEST SWAP3 SWAP2 POP POP JUMP JUMPDEST PUSH32 0x4E487B7100000000000000000000000000000000000000000000000000000000 PUSH0 MSTORE PUSH1 0x32 PUSH1 0x4 MSTORE PUSH1 0x24 PUSH0 REVERT JUMPDEST PUSH0 DUP3 DUP3 MSTORE PUSH1 0x20 DUP3 ADD SWAP1 POP SWAP3 SWAP2 POP POP JUMP JUMPDEST PUSH32 0x496E76616C6964207369676E6174757265000000000000000000000000000000 PUSH0 DUP3 ADD MSTORE POP JUMP JUMPDEST PUSH0 PUSH2 0x82D PUSH1 0x11 DUP4 PUSH2 0x7E9 JUMP JUMPDEST SWAP2 POP PUSH2 0x838 DUP3 PUSH2 0x7F9 JUMP JUMPDEST PUSH1 0x20 DUP3 ADD SWAP1 POP SWAP2 SWAP1 POP JUMP JUMPDEST PUSH0 PUSH1 0x20 DUP3 ADD SWAP1 POP DUP2 DUP2 SUB PUSH0 DUP4 ADD MSTORE PUSH2 0x85A DUP2 PUSH2 0x821 JUMP JUMPDEST SWAP1 POP SWAP2 SWAP1 POP JUMP INVALID LOG2 PUSH5 0x6970667358 0x22 SLT KECCAK256 0xD3 OR DUP1 0x22 NOT ADDMOD 0x2A 0x4E 0xC0 EXTCODECOPY CALLCODE 0xAA 0x23 SGT 0xE2 0xBD 0xF SWAP8 SSTORE 0xE5 PC SIGNEXTEND CALLDATALOAD 0xCB PUSH16 0x40876DE146FE9764736F6C634300081A STOP CALLER "
		},
		"gasEstimates": {
			"creation": {
				"codeDepositCost": "439800",
				"executionCost": "infinite",
				"totalCost": "infinite"
			},
			"external": {
				"multiTransfer(address[],uint256[],bytes[])": "infinite",
				"ownerList(uint256)": "4966",
				"owners(address)": "2810"
			}
		},
		"methodIdentifiers": {
			"multiTransfer(address[],uint256[],bytes[])": "5a60aa68",
			"ownerList(uint256)": "def79ab5",
			"owners(address)": "022914a7"
		}
	},
	"abi": [
		{
			"inputs": [
				{
					"internalType": "address[]",
					"name": "_owners",
					"type": "address[]"
				}
			],
			"stateMutability": "nonpayable",
			"type": "constructor"
		},
		{
			"inputs": [
				{
					"internalType": "address[]",
					"name": "to",
					"type": "address[]"
				},
				{
					"internalType": "uint256[]",
					"name": "amounts",
					"type": "uint256[]"
				},
				{
					"internalType": "bytes[]",
					"name": "signatures",
					"type": "bytes[]"
				}
			],
			"name": "multiTransfer",
			"outputs": [],
			"stateMutability": "nonpayable",
			"type": "function"
		},
		{
			"inputs": [
				{
					"internalType": "uint256",
					"name": "",
					"type": "uint256"
				}
			],
			"name": "ownerList",
			"outputs": [
				{
					"internalType": "address",
					"name": "",
					"type": "address"
				}
			],
			"stateMutability": "view",
			"type": "function"
		},
		{
			"inputs": [
				{
					"internalType": "address",
					"name": "",
					"type": "address"
				}
			],
			"name": "owners",
			"outputs": [
				{
					"internalType": "bool",
					"name": "",
					"type": "bool"
				}
			],
			"stateMutability": "view",
			"type": "function"
		}
	]
}